{
	"contracts/721/ERC721.sol": {
		"ERC721": {
			"abi": [
				{
					"inputs": [
						{
							"internalType": "string",
							"name": "name_",
							"type": "string"
						},
						{
							"internalType": "string",
							"name": "symbol_",
							"type": "string"
						}
					],
					"stateMutability": "nonpayable",
					"type": "constructor"
				},
				{
					"anonymous": false,
					"inputs": [
						{
							"indexed": true,
							"internalType": "address",
							"name": "from",
							"type": "address"
						},
						{
							"indexed": true,
							"internalType": "address",
							"name": "to",
							"type": "address"
						},
						{
							"indexed": true,
							"internalType": "uint256",
							"name": "tokenId",
							"type": "uint256"
						}
					],
					"name": "Transfer",
					"type": "event"
				},
				{
					"inputs": [
						{
							"internalType": "address",
							"name": "owner",
							"type": "address"
						}
					],
					"name": "balanceOf",
					"outputs": [
						{
							"internalType": "uint256",
							"name": "",
							"type": "uint256"
						}
					],
					"stateMutability": "view",
					"type": "function"
				},
				{
					"inputs": [],
					"name": "name",
					"outputs": [
						{
							"internalType": "string",
							"name": "",
							"type": "string"
						}
					],
					"stateMutability": "view",
					"type": "function"
				},
				{
					"inputs": [
						{
							"internalType": "uint256",
							"name": "tokenId",
							"type": "uint256"
						}
					],
					"name": "ownerOf",
					"outputs": [
						{
							"internalType": "address",
							"name": "",
							"type": "address"
						}
					],
					"stateMutability": "view",
					"type": "function"
				},
				{
					"inputs": [],
					"name": "symbol",
					"outputs": [
						{
							"internalType": "string",
							"name": "",
							"type": "string"
						}
					],
					"stateMutability": "view",
					"type": "function"
				},
				{
					"inputs": [
						{
							"internalType": "uint256",
							"name": "tokenId",
							"type": "uint256"
						}
					],
					"name": "tokenURI",
					"outputs": [
						{
							"internalType": "string",
							"name": "",
							"type": "string"
						}
					],
					"stateMutability": "view",
					"type": "function"
				}
			],
			"devdoc": {
				"details": "Implementation of https://eips.ethereum.org/EIPS/eip-721[ERC721] Non-Fungible Token Standard, including the Metadata extension, but not including the Enumerable extension, which is available separately as {ERC721Enumerable}.",
				"kind": "dev",
				"methods": {
					"balanceOf(address)": {
						"details": "See {IERC721-balanceOf}."
					},
					"constructor": {
						"details": "Initializes the contract by setting a `name` and a `symbol` to the token collection."
					},
					"name()": {
						"details": "See {IERC721Metadata-name}."
					},
					"ownerOf(uint256)": {
						"details": "See {IERC721-ownerOf}."
					},
					"symbol()": {
						"details": "See {IERC721Metadata-symbol}."
					},
					"tokenURI(uint256)": {
						"details": "See {IERC721Metadata-tokenURI}."
					}
				},
				"version": 1
			},
			"evm": {
				"assembly": "    /* \"contracts/721/ERC721.sol\":608:14765  contract ERC721 is Context, IERC721, IERC721Metadata {\r... */\n  mstore(0x40, 0x80)\n    /* \"contracts/721/ERC721.sol\":1387:1503  constructor(string memory name_, string memory symbol_) {\r... */\n  callvalue\n  dup1\n  iszero\n  tag_1\n  jumpi\n  0x00\n  dup1\n  revert\ntag_1:\n  pop\n  mload(0x40)\n  sub(codesize, bytecodeSize)\n  dup1\n  bytecodeSize\n  dup4\n  codecopy\n  dup2\n  dup2\n  add\n  0x40\n  mstore\n  dup2\n  add\n  swap1\n  tag_2\n  swap2\n  swap1\n  tag_3\n  jump\t// in\ntag_2:\n    /* \"contracts/721/ERC721.sol\":1462:1467  name_ */\n  dup2\n    /* \"contracts/721/ERC721.sol\":1454:1459  _name */\n  0x00\n    /* \"contracts/721/ERC721.sol\":1454:1467  _name = name_ */\n  swap1\n  dup1\n  mload\n  swap1\n  0x20\n  add\n  swap1\n  tag_6\n  swap3\n  swap2\n  swap1\n  tag_7\n  jump\t// in\ntag_6:\n  pop\n    /* \"contracts/721/ERC721.sol\":1488:1495  symbol_ */\n  dup1\n    /* \"contracts/721/ERC721.sol\":1478:1485  _symbol */\n  0x01\n    /* \"contracts/721/ERC721.sol\":1478:1495  _symbol = symbol_ */\n  swap1\n  dup1\n  mload\n  swap1\n  0x20\n  add\n  swap1\n  tag_8\n  swap3\n  swap2\n  swap1\n  tag_7\n  jump\t// in\ntag_8:\n  pop\n    /* \"contracts/721/ERC721.sol\":1387:1503  constructor(string memory name_, string memory symbol_) {\r... */\n  pop\n  pop\n    /* \"contracts/721/ERC721.sol\":608:14765  contract ERC721 is Context, IERC721, IERC721Metadata {\r... */\n  jump(tag_9)\ntag_7:\n  dup3\n  dup1\n  sload\n  tag_10\n  swap1\n  tag_11\n  jump\t// in\ntag_10:\n  swap1\n  0x00\n  mstore\n  keccak256(0x00, 0x20)\n  swap1\n  0x1f\n  add\n  0x20\n  swap1\n  div\n  dup2\n  add\n  swap3\n  dup3\n  tag_13\n  jumpi\n  0x00\n  dup6\n  sstore\n  jump(tag_12)\ntag_13:\n  dup3\n  0x1f\n  lt\n  tag_14\n  jumpi\n  dup1\n  mload\n  not(0xff)\n  and\n  dup4\n  dup1\n  add\n  or\n  dup6\n  sstore\n  jump(tag_12)\ntag_14:\n  dup3\n  dup1\n  add\n  0x01\n  add\n  dup6\n  sstore\n  dup3\n  iszero\n  tag_12\n  jumpi\n  swap2\n  dup3\n  add\ntag_15:\n  dup3\n  dup2\n  gt\n  iszero\n  tag_16\n  jumpi\n  dup3\n  mload\n  dup3\n  sstore\n  swap2\n  0x20\n  add\n  swap2\n  swap1\n  0x01\n  add\n  swap1\n  jump(tag_15)\ntag_16:\ntag_12:\n  pop\n  swap1\n  pop\n  tag_17\n  swap2\n  swap1\n  tag_18\n  jump\t// in\ntag_17:\n  pop\n  swap1\n  jump\t// out\ntag_18:\ntag_19:\n  dup1\n  dup3\n  gt\n  iszero\n  tag_20\n  jumpi\n  0x00\n  dup2\n  0x00\n  swap1\n  sstore\n  pop\n  0x01\n  add\n  jump(tag_19)\ntag_20:\n  pop\n  swap1\n  jump\t// out\n    /* \"#utility.yul\":7:361   */\ntag_22:\n    /* \"#utility.yul\":96:101   */\n  0x00\n    /* \"#utility.yul\":121:187   */\n  tag_24\n    /* \"#utility.yul\":137:186   */\n  tag_25\n    /* \"#utility.yul\":179:185   */\n  dup5\n    /* \"#utility.yul\":137:186   */\n  tag_26\n  jump\t// in\ntag_25:\n    /* \"#utility.yul\":121:187   */\n  tag_27\n  jump\t// in\ntag_24:\n    /* \"#utility.yul\":112:187   */\n  swap1\n  pop\n    /* \"#utility.yul\":210:216   */\n  dup3\n    /* \"#utility.yul\":203:208   */\n  dup2\n    /* \"#utility.yul\":196:217   */\n  mstore\n    /* \"#utility.yul\":248:252   */\n  0x20\n    /* \"#utility.yul\":241:246   */\n  dup2\n    /* \"#utility.yul\":237:253   */\n  add\n    /* \"#utility.yul\":286:289   */\n  dup5\n    /* \"#utility.yul\":277:283   */\n  dup5\n    /* \"#utility.yul\":272:275   */\n  dup5\n    /* \"#utility.yul\":268:284   */\n  add\n    /* \"#utility.yul\":265:290   */\n  gt\n    /* \"#utility.yul\":262:264   */\n  iszero\n  tag_28\n  jumpi\n    /* \"#utility.yul\":303:304   */\n  0x00\n    /* \"#utility.yul\":300:301   */\n  dup1\n    /* \"#utility.yul\":293:305   */\n  revert\n    /* \"#utility.yul\":262:264   */\ntag_28:\n    /* \"#utility.yul\":316:355   */\n  tag_29\n    /* \"#utility.yul\":348:354   */\n  dup5\n    /* \"#utility.yul\":343:346   */\n  dup3\n    /* \"#utility.yul\":338:341   */\n  dup6\n    /* \"#utility.yul\":316:355   */\n  tag_30\n  jump\t// in\ntag_29:\n    /* \"#utility.yul\":102:361   */\n  pop\n  swap4\n  swap3\n  pop\n  pop\n  pop\n  jump\t// out\n    /* \"#utility.yul\":381:669   */\ntag_31:\n    /* \"#utility.yul\":448:453   */\n  0x00\n    /* \"#utility.yul\":497:500   */\n  dup3\n    /* \"#utility.yul\":490:494   */\n  0x1f\n    /* \"#utility.yul\":482:488   */\n  dup4\n    /* \"#utility.yul\":478:495   */\n  add\n    /* \"#utility.yul\":474:501   */\n  slt\n    /* \"#utility.yul\":464:466   */\n  tag_33\n  jumpi\n    /* \"#utility.yul\":515:516   */\n  0x00\n    /* \"#utility.yul\":512:513   */\n  dup1\n    /* \"#utility.yul\":505:517   */\n  revert\n    /* \"#utility.yul\":464:466   */\ntag_33:\n    /* \"#utility.yul\":548:554   */\n  dup2\n    /* \"#utility.yul\":542:555   */\n  mload\n    /* \"#utility.yul\":573:663   */\n  tag_34\n    /* \"#utility.yul\":659:662   */\n  dup5\n    /* \"#utility.yul\":651:657   */\n  dup3\n    /* \"#utility.yul\":644:648   */\n  0x20\n    /* \"#utility.yul\":636:642   */\n  dup7\n    /* \"#utility.yul\":632:649   */\n  add\n    /* \"#utility.yul\":573:663   */\n  tag_22\n  jump\t// in\ntag_34:\n    /* \"#utility.yul\":564:663   */\n  swap2\n  pop\n    /* \"#utility.yul\":454:669   */\n  pop\n  swap3\n  swap2\n  pop\n  pop\n  jump\t// out\n    /* \"#utility.yul\":675:1327   */\ntag_3:\n    /* \"#utility.yul\":774:780   */\n  0x00\n    /* \"#utility.yul\":782:788   */\n  dup1\n    /* \"#utility.yul\":831:833   */\n  0x40\n    /* \"#utility.yul\":819:828   */\n  dup4\n    /* \"#utility.yul\":810:817   */\n  dup6\n    /* \"#utility.yul\":806:829   */\n  sub\n    /* \"#utility.yul\":802:834   */\n  slt\n    /* \"#utility.yul\":799:801   */\n  iszero\n  tag_36\n  jumpi\n    /* \"#utility.yul\":847:848   */\n  0x00\n    /* \"#utility.yul\":844:845   */\n  dup1\n    /* \"#utility.yul\":837:849   */\n  revert\n    /* \"#utility.yul\":799:801   */\ntag_36:\n    /* \"#utility.yul\":911:912   */\n  0x00\n    /* \"#utility.yul\":900:909   */\n  dup4\n    /* \"#utility.yul\":896:913   */\n  add\n    /* \"#utility.yul\":890:914   */\n  mload\n    /* \"#utility.yul\":941:959   */\n  0xffffffffffffffff\n    /* \"#utility.yul\":933:939   */\n  dup2\n    /* \"#utility.yul\":930:960   */\n  gt\n    /* \"#utility.yul\":927:929   */\n  iszero\n  tag_37\n  jumpi\n    /* \"#utility.yul\":973:974   */\n  0x00\n    /* \"#utility.yul\":970:971   */\n  dup1\n    /* \"#utility.yul\":963:975   */\n  revert\n    /* \"#utility.yul\":927:929   */\ntag_37:\n    /* \"#utility.yul\":1001:1075   */\n  tag_38\n    /* \"#utility.yul\":1067:1074   */\n  dup6\n    /* \"#utility.yul\":1058:1064   */\n  dup3\n    /* \"#utility.yul\":1047:1056   */\n  dup7\n    /* \"#utility.yul\":1043:1065   */\n  add\n    /* \"#utility.yul\":1001:1075   */\n  tag_31\n  jump\t// in\ntag_38:\n    /* \"#utility.yul\":991:1075   */\n  swap3\n  pop\n    /* \"#utility.yul\":861:1085   */\n  pop\n    /* \"#utility.yul\":1145:1147   */\n  0x20\n    /* \"#utility.yul\":1134:1143   */\n  dup4\n    /* \"#utility.yul\":1130:1148   */\n  add\n    /* \"#utility.yul\":1124:1149   */\n  mload\n    /* \"#utility.yul\":1176:1194   */\n  0xffffffffffffffff\n    /* \"#utility.yul\":1168:1174   */\n  dup2\n    /* \"#utility.yul\":1165:1195   */\n  gt\n    /* \"#utility.yul\":1162:1164   */\n  iszero\n  tag_39\n  jumpi\n    /* \"#utility.yul\":1208:1209   */\n  0x00\n    /* \"#utility.yul\":1205:1206   */\n  dup1\n    /* \"#utility.yul\":1198:1210   */\n  revert\n    /* \"#utility.yul\":1162:1164   */\ntag_39:\n    /* \"#utility.yul\":1236:1310   */\n  tag_40\n    /* \"#utility.yul\":1302:1309   */\n  dup6\n    /* \"#utility.yul\":1293:1299   */\n  dup3\n    /* \"#utility.yul\":1282:1291   */\n  dup7\n    /* \"#utility.yul\":1278:1300   */\n  add\n    /* \"#utility.yul\":1236:1310   */\n  tag_31\n  jump\t// in\ntag_40:\n    /* \"#utility.yul\":1226:1310   */\n  swap2\n  pop\n    /* \"#utility.yul\":1095:1320   */\n  pop\n    /* \"#utility.yul\":789:1327   */\n  swap3\n  pop\n  swap3\n  swap1\n  pop\n  jump\t// out\n    /* \"#utility.yul\":1333:1462   */\ntag_27:\n    /* \"#utility.yul\":1367:1373   */\n  0x00\n    /* \"#utility.yul\":1394:1414   */\n  tag_42\n  tag_43\n  jump\t// in\ntag_42:\n    /* \"#utility.yul\":1384:1414   */\n  swap1\n  pop\n    /* \"#utility.yul\":1423:1456   */\n  tag_44\n    /* \"#utility.yul\":1451:1455   */\n  dup3\n    /* \"#utility.yul\":1443:1449   */\n  dup3\n    /* \"#utility.yul\":1423:1456   */\n  tag_45\n  jump\t// in\ntag_44:\n    /* \"#utility.yul\":1374:1462   */\n  swap2\n  swap1\n  pop\n  jump\t// out\n    /* \"#utility.yul\":1468:1543   */\ntag_43:\n    /* \"#utility.yul\":1501:1507   */\n  0x00\n    /* \"#utility.yul\":1534:1536   */\n  0x40\n    /* \"#utility.yul\":1528:1537   */\n  mload\n    /* \"#utility.yul\":1518:1537   */\n  swap1\n  pop\n    /* \"#utility.yul\":1508:1543   */\n  swap1\n  jump\t// out\n    /* \"#utility.yul\":1549:1857   */\ntag_26:\n    /* \"#utility.yul\":1611:1615   */\n  0x00\n    /* \"#utility.yul\":1701:1719   */\n  0xffffffffffffffff\n    /* \"#utility.yul\":1693:1699   */\n  dup3\n    /* \"#utility.yul\":1690:1720   */\n  gt\n    /* \"#utility.yul\":1687:1689   */\n  iszero\n  tag_48\n  jumpi\n    /* \"#utility.yul\":1723:1741   */\n  tag_49\n  tag_50\n  jump\t// in\ntag_49:\n    /* \"#utility.yul\":1687:1689   */\ntag_48:\n    /* \"#utility.yul\":1761:1790   */\n  tag_51\n    /* \"#utility.yul\":1783:1789   */\n  dup3\n    /* \"#utility.yul\":1761:1790   */\n  tag_52\n  jump\t// in\ntag_51:\n    /* \"#utility.yul\":1753:1790   */\n  swap1\n  pop\n    /* \"#utility.yul\":1845:1849   */\n  0x20\n    /* \"#utility.yul\":1839:1843   */\n  dup2\n    /* \"#utility.yul\":1835:1850   */\n  add\n    /* \"#utility.yul\":1827:1850   */\n  swap1\n  pop\n    /* \"#utility.yul\":1616:1857   */\n  swap2\n  swap1\n  pop\n  jump\t// out\n    /* \"#utility.yul\":1863:2170   */\ntag_30:\n    /* \"#utility.yul\":1931:1932   */\n  0x00\n    /* \"#utility.yul\":1941:2054   */\ntag_54:\n    /* \"#utility.yul\":1955:1961   */\n  dup4\n    /* \"#utility.yul\":1952:1953   */\n  dup2\n    /* \"#utility.yul\":1949:1962   */\n  lt\n    /* \"#utility.yul\":1941:2054   */\n  iszero\n  tag_56\n  jumpi\n    /* \"#utility.yul\":2040:2041   */\n  dup1\n    /* \"#utility.yul\":2035:2038   */\n  dup3\n    /* \"#utility.yul\":2031:2042   */\n  add\n    /* \"#utility.yul\":2025:2043   */\n  mload\n    /* \"#utility.yul\":2021:2022   */\n  dup2\n    /* \"#utility.yul\":2016:2019   */\n  dup5\n    /* \"#utility.yul\":2012:2023   */\n  add\n    /* \"#utility.yul\":2005:2044   */\n  mstore\n    /* \"#utility.yul\":1977:1979   */\n  0x20\n    /* \"#utility.yul\":1974:1975   */\n  dup2\n    /* \"#utility.yul\":1970:1980   */\n  add\n    /* \"#utility.yul\":1965:1980   */\n  swap1\n  pop\n    /* \"#utility.yul\":1941:2054   */\n  jump(tag_54)\ntag_56:\n    /* \"#utility.yul\":2072:2078   */\n  dup4\n    /* \"#utility.yul\":2069:2070   */\n  dup2\n    /* \"#utility.yul\":2066:2079   */\n  gt\n    /* \"#utility.yul\":2063:2065   */\n  iszero\n  tag_57\n  jumpi\n    /* \"#utility.yul\":2152:2153   */\n  0x00\n    /* \"#utility.yul\":2143:2149   */\n  dup5\n    /* \"#utility.yul\":2138:2141   */\n  dup5\n    /* \"#utility.yul\":2134:2150   */\n  add\n    /* \"#utility.yul\":2127:2154   */\n  mstore\n    /* \"#utility.yul\":2063:2065   */\ntag_57:\n    /* \"#utility.yul\":1912:2170   */\n  pop\n  pop\n  pop\n  pop\n  jump\t// out\n    /* \"#utility.yul\":2176:2496   */\ntag_11:\n    /* \"#utility.yul\":2220:2226   */\n  0x00\n    /* \"#utility.yul\":2257:2258   */\n  0x02\n    /* \"#utility.yul\":2251:2255   */\n  dup3\n    /* \"#utility.yul\":2247:2259   */\n  div\n    /* \"#utility.yul\":2237:2259   */\n  swap1\n  pop\n    /* \"#utility.yul\":2304:2305   */\n  0x01\n    /* \"#utility.yul\":2298:2302   */\n  dup3\n    /* \"#utility.yul\":2294:2306   */\n  and\n    /* \"#utility.yul\":2325:2343   */\n  dup1\n    /* \"#utility.yul\":2315:2317   */\n  tag_59\n  jumpi\n    /* \"#utility.yul\":2381:2385   */\n  0x7f\n    /* \"#utility.yul\":2373:2379   */\n  dup3\n    /* \"#utility.yul\":2369:2386   */\n  and\n    /* \"#utility.yul\":2359:2386   */\n  swap2\n  pop\n    /* \"#utility.yul\":2315:2317   */\ntag_59:\n    /* \"#utility.yul\":2443:2445   */\n  0x20\n    /* \"#utility.yul\":2435:2441   */\n  dup3\n    /* \"#utility.yul\":2432:2446   */\n  lt\n    /* \"#utility.yul\":2412:2430   */\n  dup2\n    /* \"#utility.yul\":2409:2447   */\n  eq\n    /* \"#utility.yul\":2406:2408   */\n  iszero\n  tag_60\n  jumpi\n    /* \"#utility.yul\":2462:2480   */\n  tag_61\n  tag_62\n  jump\t// in\ntag_61:\n    /* \"#utility.yul\":2406:2408   */\ntag_60:\n    /* \"#utility.yul\":2227:2496   */\n  pop\n  swap2\n  swap1\n  pop\n  jump\t// out\n    /* \"#utility.yul\":2502:2783   */\ntag_45:\n    /* \"#utility.yul\":2585:2612   */\n  tag_64\n    /* \"#utility.yul\":2607:2611   */\n  dup3\n    /* \"#utility.yul\":2585:2612   */\n  tag_52\n  jump\t// in\ntag_64:\n    /* \"#utility.yul\":2577:2583   */\n  dup2\n    /* \"#utility.yul\":2573:2613   */\n  add\n    /* \"#utility.yul\":2715:2721   */\n  dup2\n    /* \"#utility.yul\":2703:2713   */\n  dup2\n    /* \"#utility.yul\":2700:2722   */\n  lt\n    /* \"#utility.yul\":2679:2697   */\n  0xffffffffffffffff\n    /* \"#utility.yul\":2667:2677   */\n  dup3\n    /* \"#utility.yul\":2664:2698   */\n  gt\n    /* \"#utility.yul\":2661:2723   */\n  or\n    /* \"#utility.yul\":2658:2660   */\n  iszero\n  tag_65\n  jumpi\n    /* \"#utility.yul\":2726:2744   */\n  tag_66\n  tag_50\n  jump\t// in\ntag_66:\n    /* \"#utility.yul\":2658:2660   */\ntag_65:\n    /* \"#utility.yul\":2766:2776   */\n  dup1\n    /* \"#utility.yul\":2762:2764   */\n  0x40\n    /* \"#utility.yul\":2755:2777   */\n  mstore\n    /* \"#utility.yul\":2545:2783   */\n  pop\n  pop\n  pop\n  jump\t// out\n    /* \"#utility.yul\":2789:2969   */\ntag_62:\n    /* \"#utility.yul\":2837:2914   */\n  0x4e487b7100000000000000000000000000000000000000000000000000000000\n    /* \"#utility.yul\":2834:2835   */\n  0x00\n    /* \"#utility.yul\":2827:2915   */\n  mstore\n    /* \"#utility.yul\":2934:2938   */\n  0x22\n    /* \"#utility.yul\":2931:2932   */\n  0x04\n    /* \"#utility.yul\":2924:2939   */\n  mstore\n    /* \"#utility.yul\":2958:2962   */\n  0x24\n    /* \"#utility.yul\":2955:2956   */\n  0x00\n    /* \"#utility.yul\":2948:2963   */\n  revert\n    /* \"#utility.yul\":2975:3155   */\ntag_50:\n    /* \"#utility.yul\":3023:3100   */\n  0x4e487b7100000000000000000000000000000000000000000000000000000000\n    /* \"#utility.yul\":3020:3021   */\n  0x00\n    /* \"#utility.yul\":3013:3101   */\n  mstore\n    /* \"#utility.yul\":3120:3124   */\n  0x41\n    /* \"#utility.yul\":3117:3118   */\n  0x04\n    /* \"#utility.yul\":3110:3125   */\n  mstore\n    /* \"#utility.yul\":3144:3148   */\n  0x24\n    /* \"#utility.yul\":3141:3142   */\n  0x00\n    /* \"#utility.yul\":3134:3149   */\n  revert\n    /* \"#utility.yul\":3161:3263   */\ntag_52:\n    /* \"#utility.yul\":3202:3208   */\n  0x00\n    /* \"#utility.yul\":3253:3255   */\n  0x1f\n    /* \"#utility.yul\":3249:3256   */\n  not\n    /* \"#utility.yul\":3244:3246   */\n  0x1f\n    /* \"#utility.yul\":3237:3242   */\n  dup4\n    /* \"#utility.yul\":3233:3247   */\n  add\n    /* \"#utility.yul\":3229:3257   */\n  and\n    /* \"#utility.yul\":3219:3257   */\n  swap1\n  pop\n    /* \"#utility.yul\":3209:3263   */\n  swap2\n  swap1\n  pop\n  jump\t// out\n    /* \"contracts/721/ERC721.sol\":608:14765  contract ERC721 is Context, IERC721, IERC721Metadata {\r... */\ntag_9:\n  dataSize(sub_0)\n  dup1\n  dataOffset(sub_0)\n  0x00\n  codecopy\n  0x00\n  return\nstop\n\nsub_0: assembly {\n        /* \"contracts/721/ERC721.sol\":608:14765  contract ERC721 is Context, IERC721, IERC721Metadata {\r... */\n      mstore(0x40, 0x80)\n      callvalue\n      dup1\n      iszero\n      tag_1\n      jumpi\n      0x00\n      dup1\n      revert\n    tag_1:\n      pop\n      jumpi(tag_2, lt(calldatasize, 0x04))\n      shr(0xe0, calldataload(0x00))\n      dup1\n      0x06fdde03\n      eq\n      tag_3\n      jumpi\n      dup1\n      0x6352211e\n      eq\n      tag_4\n      jumpi\n      dup1\n      0x70a08231\n      eq\n      tag_5\n      jumpi\n      dup1\n      0x95d89b41\n      eq\n      tag_6\n      jumpi\n      dup1\n      0xc87b56dd\n      eq\n      tag_7\n      jumpi\n    tag_2:\n      0x00\n      dup1\n      revert\n        /* \"contracts/721/ERC721.sol\":2502:2602  function name() public view virtual override returns (string memory) {\r... */\n    tag_3:\n      tag_8\n      tag_9\n      jump\t// in\n    tag_8:\n      mload(0x40)\n      tag_10\n      swap2\n      swap1\n      tag_11\n      jump\t// in\n    tag_10:\n      mload(0x40)\n      dup1\n      swap2\n      sub\n      swap1\n      return\n        /* \"contracts/721/ERC721.sol\":2213:2435  function ownerOf(uint256 tokenId) public view virtual override returns (address) {\r... */\n    tag_4:\n      tag_12\n      0x04\n      dup1\n      calldatasize\n      sub\n      dup2\n      add\n      swap1\n      tag_13\n      swap2\n      swap1\n      tag_14\n      jump\t// in\n    tag_13:\n      tag_15\n      jump\t// in\n    tag_12:\n      mload(0x40)\n      tag_16\n      swap2\n      swap1\n      tag_17\n      jump\t// in\n    tag_16:\n      mload(0x40)\n      dup1\n      swap2\n      sub\n      swap1\n      return\n        /* \"contracts/721/ERC721.sol\":1944:2151  function balanceOf(address owner) public view virtual override returns (uint256) {\r... */\n    tag_5:\n      tag_18\n      0x04\n      dup1\n      calldatasize\n      sub\n      dup2\n      add\n      swap1\n      tag_19\n      swap2\n      swap1\n      tag_20\n      jump\t// in\n    tag_19:\n      tag_21\n      jump\t// in\n    tag_18:\n      mload(0x40)\n      tag_22\n      swap2\n      swap1\n      tag_23\n      jump\t// in\n    tag_22:\n      mload(0x40)\n      dup1\n      swap2\n      sub\n      swap1\n      return\n        /* \"contracts/721/ERC721.sol\":2671:2775  function symbol() public view virtual override returns (string memory) {\r... */\n    tag_6:\n      tag_24\n      tag_25\n      jump\t// in\n    tag_24:\n      mload(0x40)\n      tag_26\n      swap2\n      swap1\n      tag_11\n      jump\t// in\n    tag_26:\n      mload(0x40)\n      dup1\n      swap2\n      sub\n      swap1\n      return\n        /* \"contracts/721/ERC721.sol\":2846:3127  function tokenURI(uint256 tokenId) public view virtual override returns (string memory) {\r... */\n    tag_7:\n      tag_27\n      0x04\n      dup1\n      calldatasize\n      sub\n      dup2\n      add\n      swap1\n      tag_28\n      swap2\n      swap1\n      tag_14\n      jump\t// in\n    tag_28:\n      tag_29\n      jump\t// in\n    tag_27:\n      mload(0x40)\n      tag_30\n      swap2\n      swap1\n      tag_11\n      jump\t// in\n    tag_30:\n      mload(0x40)\n      dup1\n      swap2\n      sub\n      swap1\n      return\n        /* \"contracts/721/ERC721.sol\":2502:2602  function name() public view virtual override returns (string memory) {\r... */\n    tag_9:\n        /* \"contracts/721/ERC721.sol\":2556:2569  string memory */\n      0x60\n        /* \"contracts/721/ERC721.sol\":2589:2594  _name */\n      0x00\n        /* \"contracts/721/ERC721.sol\":2582:2594  return _name */\n      dup1\n      sload\n      tag_32\n      swap1\n      tag_33\n      jump\t// in\n    tag_32:\n      dup1\n      0x1f\n      add\n      0x20\n      dup1\n      swap2\n      div\n      mul\n      0x20\n      add\n      mload(0x40)\n      swap1\n      dup2\n      add\n      0x40\n      mstore\n      dup1\n      swap3\n      swap2\n      swap1\n      dup2\n      dup2\n      mstore\n      0x20\n      add\n      dup3\n      dup1\n      sload\n      tag_34\n      swap1\n      tag_33\n      jump\t// in\n    tag_34:\n      dup1\n      iszero\n      tag_35\n      jumpi\n      dup1\n      0x1f\n      lt\n      tag_36\n      jumpi\n      0x0100\n      dup1\n      dup4\n      sload\n      div\n      mul\n      dup4\n      mstore\n      swap2\n      0x20\n      add\n      swap2\n      jump(tag_35)\n    tag_36:\n      dup3\n      add\n      swap2\n      swap1\n      0x00\n      mstore\n      keccak256(0x00, 0x20)\n      swap1\n    tag_37:\n      dup2\n      sload\n      dup2\n      mstore\n      swap1\n      0x01\n      add\n      swap1\n      0x20\n      add\n      dup1\n      dup4\n      gt\n      tag_37\n      jumpi\n      dup3\n      swap1\n      sub\n      0x1f\n      and\n      dup3\n      add\n      swap2\n    tag_35:\n      pop\n      pop\n      pop\n      pop\n      pop\n      swap1\n      pop\n        /* \"contracts/721/ERC721.sol\":2502:2602  function name() public view virtual override returns (string memory) {\r... */\n      swap1\n      jump\t// out\n        /* \"contracts/721/ERC721.sol\":2213:2435  function ownerOf(uint256 tokenId) public view virtual override returns (address) {\r... */\n    tag_15:\n        /* \"contracts/721/ERC721.sol\":2285:2292  address */\n      0x00\n        /* \"contracts/721/ERC721.sol\":2305:2318  address owner */\n      dup1\n        /* \"contracts/721/ERC721.sol\":2321:2328  _owners */\n      0x02\n        /* \"contracts/721/ERC721.sol\":2321:2337  _owners[tokenId] */\n      0x00\n        /* \"contracts/721/ERC721.sol\":2329:2336  tokenId */\n      dup5\n        /* \"contracts/721/ERC721.sol\":2321:2337  _owners[tokenId] */\n      dup2\n      mstore\n      0x20\n      add\n      swap1\n      dup2\n      mstore\n      0x20\n      add\n      0x00\n      keccak256\n      0x00\n      swap1\n      sload\n      swap1\n      0x0100\n      exp\n      swap1\n      div\n      0xffffffffffffffffffffffffffffffffffffffff\n      and\n        /* \"contracts/721/ERC721.sol\":2305:2337  address owner = _owners[tokenId] */\n      swap1\n      pop\n        /* \"contracts/721/ERC721.sol\":2373:2374  0 */\n      0x00\n        /* \"contracts/721/ERC721.sol\":2356:2375  owner != address(0) */\n      0xffffffffffffffffffffffffffffffffffffffff\n      and\n        /* \"contracts/721/ERC721.sol\":2356:2361  owner */\n      dup2\n        /* \"contracts/721/ERC721.sol\":2356:2375  owner != address(0) */\n      0xffffffffffffffffffffffffffffffffffffffff\n      and\n      eq\n      iszero\n        /* \"contracts/721/ERC721.sol\":2348:2404  require(owner != address(0), \"ERC721: invalid token ID\") */\n      tag_39\n      jumpi\n      mload(0x40)\n      0x08c379a000000000000000000000000000000000000000000000000000000000\n      dup2\n      mstore\n      0x04\n      add\n      tag_40\n      swap1\n      tag_41\n      jump\t// in\n    tag_40:\n      mload(0x40)\n      dup1\n      swap2\n      sub\n      swap1\n      revert\n    tag_39:\n        /* \"contracts/721/ERC721.sol\":2422:2427  owner */\n      dup1\n        /* \"contracts/721/ERC721.sol\":2415:2427  return owner */\n      swap2\n      pop\n      pop\n        /* \"contracts/721/ERC721.sol\":2213:2435  function ownerOf(uint256 tokenId) public view virtual override returns (address) {\r... */\n      swap2\n      swap1\n      pop\n      jump\t// out\n        /* \"contracts/721/ERC721.sol\":1944:2151  function balanceOf(address owner) public view virtual override returns (uint256) {\r... */\n    tag_21:\n        /* \"contracts/721/ERC721.sol\":2016:2023  uint256 */\n      0x00\n        /* \"contracts/721/ERC721.sol\":2061:2062  0 */\n      dup1\n        /* \"contracts/721/ERC721.sol\":2044:2063  owner != address(0) */\n      0xffffffffffffffffffffffffffffffffffffffff\n      and\n        /* \"contracts/721/ERC721.sol\":2044:2049  owner */\n      dup3\n        /* \"contracts/721/ERC721.sol\":2044:2063  owner != address(0) */\n      0xffffffffffffffffffffffffffffffffffffffff\n      and\n      eq\n      iszero\n        /* \"contracts/721/ERC721.sol\":2036:2109  require(owner != address(0), \"ERC721: address zero is not a valid owner\") */\n      tag_43\n      jumpi\n      mload(0x40)\n      0x08c379a000000000000000000000000000000000000000000000000000000000\n      dup2\n      mstore\n      0x04\n      add\n      tag_44\n      swap1\n      tag_45\n      jump\t// in\n    tag_44:\n      mload(0x40)\n      dup1\n      swap2\n      sub\n      swap1\n      revert\n    tag_43:\n        /* \"contracts/721/ERC721.sol\":2127:2136  _balances */\n      0x03\n        /* \"contracts/721/ERC721.sol\":2127:2143  _balances[owner] */\n      0x00\n        /* \"contracts/721/ERC721.sol\":2137:2142  owner */\n      dup4\n        /* \"contracts/721/ERC721.sol\":2127:2143  _balances[owner] */\n      0xffffffffffffffffffffffffffffffffffffffff\n      and\n      0xffffffffffffffffffffffffffffffffffffffff\n      and\n      dup2\n      mstore\n      0x20\n      add\n      swap1\n      dup2\n      mstore\n      0x20\n      add\n      0x00\n      keccak256\n      sload\n        /* \"contracts/721/ERC721.sol\":2120:2143  return _balances[owner] */\n      swap1\n      pop\n        /* \"contracts/721/ERC721.sol\":1944:2151  function balanceOf(address owner) public view virtual override returns (uint256) {\r... */\n      swap2\n      swap1\n      pop\n      jump\t// out\n        /* \"contracts/721/ERC721.sol\":2671:2775  function symbol() public view virtual override returns (string memory) {\r... */\n    tag_25:\n        /* \"contracts/721/ERC721.sol\":2727:2740  string memory */\n      0x60\n        /* \"contracts/721/ERC721.sol\":2760:2767  _symbol */\n      0x01\n        /* \"contracts/721/ERC721.sol\":2753:2767  return _symbol */\n      dup1\n      sload\n      tag_47\n      swap1\n      tag_33\n      jump\t// in\n    tag_47:\n      dup1\n      0x1f\n      add\n      0x20\n      dup1\n      swap2\n      div\n      mul\n      0x20\n      add\n      mload(0x40)\n      swap1\n      dup2\n      add\n      0x40\n      mstore\n      dup1\n      swap3\n      swap2\n      swap1\n      dup2\n      dup2\n      mstore\n      0x20\n      add\n      dup3\n      dup1\n      sload\n      tag_48\n      swap1\n      tag_33\n      jump\t// in\n    tag_48:\n      dup1\n      iszero\n      tag_49\n      jumpi\n      dup1\n      0x1f\n      lt\n      tag_50\n      jumpi\n      0x0100\n      dup1\n      dup4\n      sload\n      div\n      mul\n      dup4\n      mstore\n      swap2\n      0x20\n      add\n      swap2\n      jump(tag_49)\n    tag_50:\n      dup3\n      add\n      swap2\n      swap1\n      0x00\n      mstore\n      keccak256(0x00, 0x20)\n      swap1\n    tag_51:\n      dup2\n      sload\n      dup2\n      mstore\n      swap1\n      0x01\n      add\n      swap1\n      0x20\n      add\n      dup1\n      dup4\n      gt\n      tag_51\n      jumpi\n      dup3\n      swap1\n      sub\n      0x1f\n      and\n      dup3\n      add\n      swap2\n    tag_49:\n      pop\n      pop\n      pop\n      pop\n      pop\n      swap1\n      pop\n        /* \"contracts/721/ERC721.sol\":2671:2775  function symbol() public view virtual override returns (string memory) {\r... */\n      swap1\n      jump\t// out\n        /* \"contracts/721/ERC721.sol\":2846:3127  function tokenURI(uint256 tokenId) public view virtual override returns (string memory) {\r... */\n    tag_29:\n        /* \"contracts/721/ERC721.sol\":2919:2932  string memory */\n      0x60\n        /* \"contracts/721/ERC721.sol\":2945:2968  _requireMinted(tokenId) */\n      tag_53\n        /* \"contracts/721/ERC721.sol\":2960:2967  tokenId */\n      dup3\n        /* \"contracts/721/ERC721.sol\":2945:2959  _requireMinted */\n      tag_54\n        /* \"contracts/721/ERC721.sol\":2945:2968  _requireMinted(tokenId) */\n      jump\t// in\n    tag_53:\n        /* \"contracts/721/ERC721.sol\":2981:3002  string memory baseURI */\n      0x00\n        /* \"contracts/721/ERC721.sol\":3005:3015  _baseURI() */\n      tag_55\n        /* \"contracts/721/ERC721.sol\":3005:3013  _baseURI */\n      tag_56\n        /* \"contracts/721/ERC721.sol\":3005:3015  _baseURI() */\n      jump\t// in\n    tag_55:\n        /* \"contracts/721/ERC721.sol\":2981:3015  string memory baseURI = _baseURI() */\n      swap1\n      pop\n        /* \"contracts/721/ERC721.sol\":3057:3058  0 */\n      0x00\n        /* \"contracts/721/ERC721.sol\":3039:3046  baseURI */\n      dup2\n        /* \"contracts/721/ERC721.sol\":3033:3054  bytes(baseURI).length */\n      mload\n        /* \"contracts/721/ERC721.sol\":3033:3058  bytes(baseURI).length > 0 */\n      gt\n        /* \"contracts/721/ERC721.sol\":3033:3119  bytes(baseURI).length > 0 ? string(abi.encodePacked(baseURI, tokenId.toString())) : \"\" */\n      tag_57\n      jumpi\n      mload(0x40)\n      dup1\n      0x20\n      add\n      0x40\n      mstore\n      dup1\n      0x00\n      dup2\n      mstore\n      pop\n      jump(tag_58)\n    tag_57:\n        /* \"contracts/721/ERC721.sol\":3085:3092  baseURI */\n      dup1\n        /* \"contracts/721/ERC721.sol\":3094:3112  tokenId.toString() */\n      tag_59\n        /* \"contracts/721/ERC721.sol\":3094:3101  tokenId */\n      dup5\n        /* \"contracts/721/ERC721.sol\":3094:3110  tokenId.toString */\n      tag_60\n        /* \"contracts/721/ERC721.sol\":3094:3112  tokenId.toString() */\n      jump\t// in\n    tag_59:\n        /* \"contracts/721/ERC721.sol\":3068:3113  abi.encodePacked(baseURI, tokenId.toString()) */\n      add(0x20, mload(0x40))\n      tag_61\n      swap3\n      swap2\n      swap1\n      tag_62\n      jump\t// in\n    tag_61:\n      mload(0x40)\n      0x20\n      dup2\n      dup4\n      sub\n      sub\n      dup2\n      mstore\n      swap1\n      0x40\n      mstore\n        /* \"contracts/721/ERC721.sol\":3033:3119  bytes(baseURI).length > 0 ? string(abi.encodePacked(baseURI, tokenId.toString())) : \"\" */\n    tag_58:\n        /* \"contracts/721/ERC721.sol\":3026:3119  return bytes(baseURI).length > 0 ? string(abi.encodePacked(baseURI, tokenId.toString())) : \"\" */\n      swap2\n      pop\n      pop\n        /* \"contracts/721/ERC721.sol\":2846:3127  function tokenURI(uint256 tokenId) public view virtual override returns (string memory) {\r... */\n      swap2\n      swap1\n      pop\n      jump\t// out\n        /* \"contracts/721/ERC721.sol\":11990:12125  function _requireMinted(uint256 tokenId) internal view virtual {\r... */\n    tag_54:\n        /* \"contracts/721/ERC721.sol\":12072:12088  _exists(tokenId) */\n      tag_64\n        /* \"contracts/721/ERC721.sol\":12080:12087  tokenId */\n      dup2\n        /* \"contracts/721/ERC721.sol\":12072:12079  _exists */\n      tag_65\n        /* \"contracts/721/ERC721.sol\":12072:12088  _exists(tokenId) */\n      jump\t// in\n    tag_64:\n        /* \"contracts/721/ERC721.sol\":12064:12117  require(_exists(tokenId), \"ERC721: invalid token ID\") */\n      tag_66\n      jumpi\n      mload(0x40)\n      0x08c379a000000000000000000000000000000000000000000000000000000000\n      dup2\n      mstore\n      0x04\n      add\n      tag_67\n      swap1\n      tag_41\n      jump\t// in\n    tag_67:\n      mload(0x40)\n      dup1\n      swap2\n      sub\n      swap1\n      revert\n    tag_66:\n        /* \"contracts/721/ERC721.sol\":11990:12125  function _requireMinted(uint256 tokenId) internal view virtual {\r... */\n      pop\n      jump\t// out\n        /* \"contracts/721/ERC721.sol\":3376:3470  function _baseURI() internal view virtual returns (string memory) {\r... */\n    tag_56:\n        /* \"contracts/721/ERC721.sol\":3427:3440  string memory */\n      0x60\n        /* \"contracts/721/ERC721.sol\":3453:3462  return \"\" */\n      mload(0x40)\n      dup1\n      0x20\n      add\n      0x40\n      mstore\n      dup1\n      0x00\n      dup2\n      mstore\n      pop\n      swap1\n      pop\n        /* \"contracts/721/ERC721.sol\":3376:3470  function _baseURI() internal view virtual returns (string memory) {\r... */\n      swap1\n      jump\t// out\n        /* \"contracts/721/utils/Strings.sol\":392:1115  function toString(uint256 value) internal pure returns (string memory) {\r... */\n    tag_60:\n        /* \"contracts/721/utils/Strings.sol\":448:461  string memory */\n      0x60\n        /* \"contracts/721/utils/Strings.sol\":678:679  0 */\n      0x00\n        /* \"contracts/721/utils/Strings.sol\":669:674  value */\n      dup3\n        /* \"contracts/721/utils/Strings.sol\":669:679  value == 0 */\n      eq\n        /* \"contracts/721/utils/Strings.sol\":665:718  if (value == 0) {\r... */\n      iszero\n      tag_70\n      jumpi\n        /* \"contracts/721/utils/Strings.sol\":696:706  return \"0\" */\n      mload(0x40)\n      dup1\n      0x40\n      add\n      0x40\n      mstore\n      dup1\n      0x01\n      dup2\n      mstore\n      0x20\n      add\n      0x3000000000000000000000000000000000000000000000000000000000000000\n      dup2\n      mstore\n      pop\n      swap1\n      pop\n      jump(tag_69)\n        /* \"contracts/721/utils/Strings.sol\":665:718  if (value == 0) {\r... */\n    tag_70:\n        /* \"contracts/721/utils/Strings.sol\":728:740  uint256 temp */\n      0x00\n        /* \"contracts/721/utils/Strings.sol\":743:748  value */\n      dup3\n        /* \"contracts/721/utils/Strings.sol\":728:748  uint256 temp = value */\n      swap1\n      pop\n        /* \"contracts/721/utils/Strings.sol\":759:773  uint256 digits */\n      0x00\n        /* \"contracts/721/utils/Strings.sol\":784:862  while (temp != 0) {\r... */\n    tag_71:\n        /* \"contracts/721/utils/Strings.sol\":799:800  0 */\n      0x00\n        /* \"contracts/721/utils/Strings.sol\":791:795  temp */\n      dup3\n        /* \"contracts/721/utils/Strings.sol\":791:800  temp != 0 */\n      eq\n        /* \"contracts/721/utils/Strings.sol\":784:862  while (temp != 0) {\r... */\n      tag_72\n      jumpi\n        /* \"contracts/721/utils/Strings.sol\":817:825  digits++ */\n      dup1\n      dup1\n      tag_73\n      swap1\n      tag_74\n      jump\t// in\n    tag_73:\n      swap2\n      pop\n      pop\n        /* \"contracts/721/utils/Strings.sol\":848:850  10 */\n      0x0a\n        /* \"contracts/721/utils/Strings.sol\":840:850  temp /= 10 */\n      dup3\n      tag_75\n      swap2\n      swap1\n      tag_76\n      jump\t// in\n    tag_75:\n      swap2\n      pop\n        /* \"contracts/721/utils/Strings.sol\":784:862  while (temp != 0) {\r... */\n      jump(tag_71)\n    tag_72:\n        /* \"contracts/721/utils/Strings.sol\":872:891  bytes memory buffer */\n      0x00\n        /* \"contracts/721/utils/Strings.sol\":904:910  digits */\n      dup2\n        /* \"contracts/721/utils/Strings.sol\":894:911  new bytes(digits) */\n      0xffffffffffffffff\n      dup2\n      gt\n      iszero\n      tag_77\n      jumpi\n      mstore(0x00, 0x4e487b7100000000000000000000000000000000000000000000000000000000)\n      mstore(0x04, 0x41)\n      revert(0x00, 0x24)\n    tag_77:\n      mload(0x40)\n      swap1\n      dup1\n      dup3\n      mstore\n      dup1\n      0x1f\n      add\n      not(0x1f)\n      and\n      0x20\n      add\n      dup3\n      add\n      0x40\n      mstore\n      dup1\n      iszero\n      tag_78\n      jumpi\n      dup2\n      0x20\n      add\n      0x01\n      dup3\n      mul\n      dup1\n      calldatasize\n      dup4\n      calldatacopy\n      dup1\n      dup3\n      add\n      swap2\n      pop\n      pop\n      swap1\n      pop\n    tag_78:\n      pop\n        /* \"contracts/721/utils/Strings.sol\":872:911  bytes memory buffer = new bytes(digits) */\n      swap1\n      pop\n        /* \"contracts/721/utils/Strings.sol\":922:1076  while (value != 0) {\r... */\n    tag_79:\n        /* \"contracts/721/utils/Strings.sol\":938:939  0 */\n      0x00\n        /* \"contracts/721/utils/Strings.sol\":929:934  value */\n      dup6\n        /* \"contracts/721/utils/Strings.sol\":929:939  value != 0 */\n      eq\n        /* \"contracts/721/utils/Strings.sol\":922:1076  while (value != 0) {\r... */\n      tag_80\n      jumpi\n        /* \"contracts/721/utils/Strings.sol\":966:967  1 */\n      0x01\n        /* \"contracts/721/utils/Strings.sol\":956:967  digits -= 1 */\n      dup3\n      tag_81\n      swap2\n      swap1\n      tag_82\n      jump\t// in\n    tag_81:\n      swap2\n      pop\n        /* \"contracts/721/utils/Strings.sol\":1033:1035  10 */\n      0x0a\n        /* \"contracts/721/utils/Strings.sol\":1025:1030  value */\n      dup6\n        /* \"contracts/721/utils/Strings.sol\":1025:1035  value % 10 */\n      tag_83\n      swap2\n      swap1\n      tag_84\n      jump\t// in\n    tag_83:\n        /* \"contracts/721/utils/Strings.sol\":1012:1014  48 */\n      0x30\n        /* \"contracts/721/utils/Strings.sol\":1012:1036  48 + uint256(value % 10) */\n      tag_85\n      swap2\n      swap1\n      tag_86\n      jump\t// in\n    tag_85:\n        /* \"contracts/721/utils/Strings.sol\":999:1038  bytes1(uint8(48 + uint256(value % 10))) */\n      0xf8\n      shl\n        /* \"contracts/721/utils/Strings.sol\":982:988  buffer */\n      dup2\n        /* \"contracts/721/utils/Strings.sol\":989:995  digits */\n      dup4\n        /* \"contracts/721/utils/Strings.sol\":982:996  buffer[digits] */\n      dup2\n      mload\n      dup2\n      lt\n      tag_87\n      jumpi\n      mstore(0x00, 0x4e487b7100000000000000000000000000000000000000000000000000000000)\n      mstore(0x04, 0x32)\n      revert(0x00, 0x24)\n    tag_87:\n      0x20\n      add\n      add\n        /* \"contracts/721/utils/Strings.sol\":982:1038  buffer[digits] = bytes1(uint8(48 + uint256(value % 10))) */\n      swap1\n      not(0xffffffffffffffffffffffffffffffffffffffffffffffffffffffffffffff)\n      and\n      swap1\n      dup2\n      0x00\n      byte\n      swap1\n      mstore8\n      pop\n        /* \"contracts/721/utils/Strings.sol\":1062:1064  10 */\n      0x0a\n        /* \"contracts/721/utils/Strings.sol\":1053:1064  value /= 10 */\n      dup6\n      tag_88\n      swap2\n      swap1\n      tag_76\n      jump\t// in\n    tag_88:\n      swap5\n      pop\n        /* \"contracts/721/utils/Strings.sol\":922:1076  while (value != 0) {\r... */\n      jump(tag_79)\n    tag_80:\n        /* \"contracts/721/utils/Strings.sol\":1100:1106  buffer */\n      dup1\n        /* \"contracts/721/utils/Strings.sol\":1086:1107  return string(buffer) */\n      swap4\n      pop\n      pop\n      pop\n      pop\n        /* \"contracts/721/utils/Strings.sol\":392:1115  function toString(uint256 value) internal pure returns (string memory) {\r... */\n    tag_69:\n      swap2\n      swap1\n      pop\n      jump\t// out\n        /* \"contracts/721/ERC721.sol\":7208:7335  function _exists(uint256 tokenId) internal view virtual returns (bool) {\r... */\n    tag_65:\n        /* \"contracts/721/ERC721.sol\":7273:7277  bool */\n      0x00\n        /* \"contracts/721/ERC721.sol\":7325:7326  0 */\n      dup1\n        /* \"contracts/721/ERC721.sol\":7297:7327  _owners[tokenId] != address(0) */\n      0xffffffffffffffffffffffffffffffffffffffff\n      and\n        /* \"contracts/721/ERC721.sol\":7297:7304  _owners */\n      0x02\n        /* \"contracts/721/ERC721.sol\":7297:7313  _owners[tokenId] */\n      0x00\n        /* \"contracts/721/ERC721.sol\":7305:7312  tokenId */\n      dup5\n        /* \"contracts/721/ERC721.sol\":7297:7313  _owners[tokenId] */\n      dup2\n      mstore\n      0x20\n      add\n      swap1\n      dup2\n      mstore\n      0x20\n      add\n      0x00\n      keccak256\n      0x00\n      swap1\n      sload\n      swap1\n      0x0100\n      exp\n      swap1\n      div\n      0xffffffffffffffffffffffffffffffffffffffff\n      and\n        /* \"contracts/721/ERC721.sol\":7297:7327  _owners[tokenId] != address(0) */\n      0xffffffffffffffffffffffffffffffffffffffff\n      and\n      eq\n      iszero\n        /* \"contracts/721/ERC721.sol\":7290:7327  return _owners[tokenId] != address(0) */\n      swap1\n      pop\n        /* \"contracts/721/ERC721.sol\":7208:7335  function _exists(uint256 tokenId) internal view virtual returns (bool) {\r... */\n      swap2\n      swap1\n      pop\n      jump\t// out\n        /* \"#utility.yul\":7:146   */\n    tag_91:\n        /* \"#utility.yul\":53:58   */\n      0x00\n        /* \"#utility.yul\":91:97   */\n      dup2\n        /* \"#utility.yul\":78:98   */\n      calldataload\n        /* \"#utility.yul\":69:98   */\n      swap1\n      pop\n        /* \"#utility.yul\":107:140   */\n      tag_93\n        /* \"#utility.yul\":134:139   */\n      dup2\n        /* \"#utility.yul\":107:140   */\n      tag_94\n      jump\t// in\n    tag_93:\n        /* \"#utility.yul\":59:146   */\n      swap3\n      swap2\n      pop\n      pop\n      jump\t// out\n        /* \"#utility.yul\":152:291   */\n    tag_95:\n        /* \"#utility.yul\":198:203   */\n      0x00\n        /* \"#utility.yul\":236:242   */\n      dup2\n        /* \"#utility.yul\":223:243   */\n      calldataload\n        /* \"#utility.yul\":214:243   */\n      swap1\n      pop\n        /* \"#utility.yul\":252:285   */\n      tag_97\n        /* \"#utility.yul\":279:284   */\n      dup2\n        /* \"#utility.yul\":252:285   */\n      tag_98\n      jump\t// in\n    tag_97:\n        /* \"#utility.yul\":204:291   */\n      swap3\n      swap2\n      pop\n      pop\n      jump\t// out\n        /* \"#utility.yul\":297:559   */\n    tag_20:\n        /* \"#utility.yul\":356:362   */\n      0x00\n        /* \"#utility.yul\":405:407   */\n      0x20\n        /* \"#utility.yul\":393:402   */\n      dup3\n        /* \"#utility.yul\":384:391   */\n      dup5\n        /* \"#utility.yul\":380:403   */\n      sub\n        /* \"#utility.yul\":376:408   */\n      slt\n        /* \"#utility.yul\":373:375   */\n      iszero\n      tag_100\n      jumpi\n        /* \"#utility.yul\":421:422   */\n      0x00\n        /* \"#utility.yul\":418:419   */\n      dup1\n        /* \"#utility.yul\":411:423   */\n      revert\n        /* \"#utility.yul\":373:375   */\n    tag_100:\n        /* \"#utility.yul\":464:465   */\n      0x00\n        /* \"#utility.yul\":489:542   */\n      tag_101\n        /* \"#utility.yul\":534:541   */\n      dup5\n        /* \"#utility.yul\":525:531   */\n      dup3\n        /* \"#utility.yul\":514:523   */\n      dup6\n        /* \"#utility.yul\":510:532   */\n      add\n        /* \"#utility.yul\":489:542   */\n      tag_91\n      jump\t// in\n    tag_101:\n        /* \"#utility.yul\":479:542   */\n      swap2\n      pop\n        /* \"#utility.yul\":435:552   */\n      pop\n        /* \"#utility.yul\":363:559   */\n      swap3\n      swap2\n      pop\n      pop\n      jump\t// out\n        /* \"#utility.yul\":565:827   */\n    tag_14:\n        /* \"#utility.yul\":624:630   */\n      0x00\n        /* \"#utility.yul\":673:675   */\n      0x20\n        /* \"#utility.yul\":661:670   */\n      dup3\n        /* \"#utility.yul\":652:659   */\n      dup5\n        /* \"#utility.yul\":648:671   */\n      sub\n        /* \"#utility.yul\":644:676   */\n      slt\n        /* \"#utility.yul\":641:643   */\n      iszero\n      tag_103\n      jumpi\n        /* \"#utility.yul\":689:690   */\n      0x00\n        /* \"#utility.yul\":686:687   */\n      dup1\n        /* \"#utility.yul\":679:691   */\n      revert\n        /* \"#utility.yul\":641:643   */\n    tag_103:\n        /* \"#utility.yul\":732:733   */\n      0x00\n        /* \"#utility.yul\":757:810   */\n      tag_104\n        /* \"#utility.yul\":802:809   */\n      dup5\n        /* \"#utility.yul\":793:799   */\n      dup3\n        /* \"#utility.yul\":782:791   */\n      dup6\n        /* \"#utility.yul\":778:800   */\n      add\n        /* \"#utility.yul\":757:810   */\n      tag_95\n      jump\t// in\n    tag_104:\n        /* \"#utility.yul\":747:810   */\n      swap2\n      pop\n        /* \"#utility.yul\":703:820   */\n      pop\n        /* \"#utility.yul\":631:827   */\n      swap3\n      swap2\n      pop\n      pop\n      jump\t// out\n        /* \"#utility.yul\":833:951   */\n    tag_105:\n        /* \"#utility.yul\":920:944   */\n      tag_107\n        /* \"#utility.yul\":938:943   */\n      dup2\n        /* \"#utility.yul\":920:944   */\n      tag_108\n      jump\t// in\n    tag_107:\n        /* \"#utility.yul\":915:918   */\n      dup3\n        /* \"#utility.yul\":908:945   */\n      mstore\n        /* \"#utility.yul\":898:951   */\n      pop\n      pop\n      jump\t// out\n        /* \"#utility.yul\":957:1321   */\n    tag_109:\n        /* \"#utility.yul\":1045:1048   */\n      0x00\n        /* \"#utility.yul\":1073:1112   */\n      tag_111\n        /* \"#utility.yul\":1106:1111   */\n      dup3\n        /* \"#utility.yul\":1073:1112   */\n      tag_112\n      jump\t// in\n    tag_111:\n        /* \"#utility.yul\":1128:1199   */\n      tag_113\n        /* \"#utility.yul\":1192:1198   */\n      dup2\n        /* \"#utility.yul\":1187:1190   */\n      dup6\n        /* \"#utility.yul\":1128:1199   */\n      tag_114\n      jump\t// in\n    tag_113:\n        /* \"#utility.yul\":1121:1199   */\n      swap4\n      pop\n        /* \"#utility.yul\":1208:1260   */\n      tag_115\n        /* \"#utility.yul\":1253:1259   */\n      dup2\n        /* \"#utility.yul\":1248:1251   */\n      dup6\n        /* \"#utility.yul\":1241:1245   */\n      0x20\n        /* \"#utility.yul\":1234:1239   */\n      dup7\n        /* \"#utility.yul\":1230:1246   */\n      add\n        /* \"#utility.yul\":1208:1260   */\n      tag_116\n      jump\t// in\n    tag_115:\n        /* \"#utility.yul\":1285:1314   */\n      tag_117\n        /* \"#utility.yul\":1307:1313   */\n      dup2\n        /* \"#utility.yul\":1285:1314   */\n      tag_118\n      jump\t// in\n    tag_117:\n        /* \"#utility.yul\":1280:1283   */\n      dup5\n        /* \"#utility.yul\":1276:1315   */\n      add\n        /* \"#utility.yul\":1269:1315   */\n      swap2\n      pop\n        /* \"#utility.yul\":1049:1321   */\n      pop\n      swap3\n      swap2\n      pop\n      pop\n      jump\t// out\n        /* \"#utility.yul\":1327:1704   */\n    tag_119:\n        /* \"#utility.yul\":1433:1436   */\n      0x00\n        /* \"#utility.yul\":1461:1500   */\n      tag_121\n        /* \"#utility.yul\":1494:1499   */\n      dup3\n        /* \"#utility.yul\":1461:1500   */\n      tag_112\n      jump\t// in\n    tag_121:\n        /* \"#utility.yul\":1516:1605   */\n      tag_122\n        /* \"#utility.yul\":1598:1604   */\n      dup2\n        /* \"#utility.yul\":1593:1596   */\n      dup6\n        /* \"#utility.yul\":1516:1605   */\n      tag_123\n      jump\t// in\n    tag_122:\n        /* \"#utility.yul\":1509:1605   */\n      swap4\n      pop\n        /* \"#utility.yul\":1614:1666   */\n      tag_124\n        /* \"#utility.yul\":1659:1665   */\n      dup2\n        /* \"#utility.yul\":1654:1657   */\n      dup6\n        /* \"#utility.yul\":1647:1651   */\n      0x20\n        /* \"#utility.yul\":1640:1645   */\n      dup7\n        /* \"#utility.yul\":1636:1652   */\n      add\n        /* \"#utility.yul\":1614:1666   */\n      tag_116\n      jump\t// in\n    tag_124:\n        /* \"#utility.yul\":1691:1697   */\n      dup1\n        /* \"#utility.yul\":1686:1689   */\n      dup5\n        /* \"#utility.yul\":1682:1698   */\n      add\n        /* \"#utility.yul\":1675:1698   */\n      swap2\n      pop\n        /* \"#utility.yul\":1437:1704   */\n      pop\n      swap3\n      swap2\n      pop\n      pop\n      jump\t// out\n        /* \"#utility.yul\":1710:2076   */\n    tag_125:\n        /* \"#utility.yul\":1852:1855   */\n      0x00\n        /* \"#utility.yul\":1873:1940   */\n      tag_127\n        /* \"#utility.yul\":1937:1939   */\n      0x29\n        /* \"#utility.yul\":1932:1935   */\n      dup4\n        /* \"#utility.yul\":1873:1940   */\n      tag_114\n      jump\t// in\n    tag_127:\n        /* \"#utility.yul\":1866:1940   */\n      swap2\n      pop\n        /* \"#utility.yul\":1949:2042   */\n      tag_128\n        /* \"#utility.yul\":2038:2041   */\n      dup3\n        /* \"#utility.yul\":1949:2042   */\n      tag_129\n      jump\t// in\n    tag_128:\n        /* \"#utility.yul\":2067:2069   */\n      0x40\n        /* \"#utility.yul\":2062:2065   */\n      dup3\n        /* \"#utility.yul\":2058:2070   */\n      add\n        /* \"#utility.yul\":2051:2070   */\n      swap1\n      pop\n        /* \"#utility.yul\":1856:2076   */\n      swap2\n      swap1\n      pop\n      jump\t// out\n        /* \"#utility.yul\":2082:2448   */\n    tag_130:\n        /* \"#utility.yul\":2224:2227   */\n      0x00\n        /* \"#utility.yul\":2245:2312   */\n      tag_132\n        /* \"#utility.yul\":2309:2311   */\n      0x18\n        /* \"#utility.yul\":2304:2307   */\n      dup4\n        /* \"#utility.yul\":2245:2312   */\n      tag_114\n      jump\t// in\n    tag_132:\n        /* \"#utility.yul\":2238:2312   */\n      swap2\n      pop\n        /* \"#utility.yul\":2321:2414   */\n      tag_133\n        /* \"#utility.yul\":2410:2413   */\n      dup3\n        /* \"#utility.yul\":2321:2414   */\n      tag_134\n      jump\t// in\n    tag_133:\n        /* \"#utility.yul\":2439:2441   */\n      0x20\n        /* \"#utility.yul\":2434:2437   */\n      dup3\n        /* \"#utility.yul\":2430:2442   */\n      add\n        /* \"#utility.yul\":2423:2442   */\n      swap1\n      pop\n        /* \"#utility.yul\":2228:2448   */\n      swap2\n      swap1\n      pop\n      jump\t// out\n        /* \"#utility.yul\":2454:2572   */\n    tag_135:\n        /* \"#utility.yul\":2541:2565   */\n      tag_137\n        /* \"#utility.yul\":2559:2564   */\n      dup2\n        /* \"#utility.yul\":2541:2565   */\n      tag_138\n      jump\t// in\n    tag_137:\n        /* \"#utility.yul\":2536:2539   */\n      dup3\n        /* \"#utility.yul\":2529:2566   */\n      mstore\n        /* \"#utility.yul\":2519:2572   */\n      pop\n      pop\n      jump\t// out\n        /* \"#utility.yul\":2578:3013   */\n    tag_62:\n        /* \"#utility.yul\":2758:2761   */\n      0x00\n        /* \"#utility.yul\":2780:2875   */\n      tag_140\n        /* \"#utility.yul\":2871:2874   */\n      dup3\n        /* \"#utility.yul\":2862:2868   */\n      dup6\n        /* \"#utility.yul\":2780:2875   */\n      tag_119\n      jump\t// in\n    tag_140:\n        /* \"#utility.yul\":2773:2875   */\n      swap2\n      pop\n        /* \"#utility.yul\":2892:2987   */\n      tag_141\n        /* \"#utility.yul\":2983:2986   */\n      dup3\n        /* \"#utility.yul\":2974:2980   */\n      dup5\n        /* \"#utility.yul\":2892:2987   */\n      tag_119\n      jump\t// in\n    tag_141:\n        /* \"#utility.yul\":2885:2987   */\n      swap2\n      pop\n        /* \"#utility.yul\":3004:3007   */\n      dup2\n        /* \"#utility.yul\":2997:3007   */\n      swap1\n      pop\n        /* \"#utility.yul\":2762:3013   */\n      swap4\n      swap3\n      pop\n      pop\n      pop\n      jump\t// out\n        /* \"#utility.yul\":3019:3241   */\n    tag_17:\n        /* \"#utility.yul\":3112:3116   */\n      0x00\n        /* \"#utility.yul\":3150:3152   */\n      0x20\n        /* \"#utility.yul\":3139:3148   */\n      dup3\n        /* \"#utility.yul\":3135:3153   */\n      add\n        /* \"#utility.yul\":3127:3153   */\n      swap1\n      pop\n        /* \"#utility.yul\":3163:3234   */\n      tag_143\n        /* \"#utility.yul\":3231:3232   */\n      0x00\n        /* \"#utility.yul\":3220:3229   */\n      dup4\n        /* \"#utility.yul\":3216:3233   */\n      add\n        /* \"#utility.yul\":3207:3213   */\n      dup5\n        /* \"#utility.yul\":3163:3234   */\n      tag_105\n      jump\t// in\n    tag_143:\n        /* \"#utility.yul\":3117:3241   */\n      swap3\n      swap2\n      pop\n      pop\n      jump\t// out\n        /* \"#utility.yul\":3247:3560   */\n    tag_11:\n        /* \"#utility.yul\":3360:3364   */\n      0x00\n        /* \"#utility.yul\":3398:3400   */\n      0x20\n        /* \"#utility.yul\":3387:3396   */\n      dup3\n        /* \"#utility.yul\":3383:3401   */\n      add\n        /* \"#utility.yul\":3375:3401   */\n      swap1\n      pop\n        /* \"#utility.yul\":3447:3456   */\n      dup2\n        /* \"#utility.yul\":3441:3445   */\n      dup2\n        /* \"#utility.yul\":3437:3457   */\n      sub\n        /* \"#utility.yul\":3433:3434   */\n      0x00\n        /* \"#utility.yul\":3422:3431   */\n      dup4\n        /* \"#utility.yul\":3418:3435   */\n      add\n        /* \"#utility.yul\":3411:3458   */\n      mstore\n        /* \"#utility.yul\":3475:3553   */\n      tag_145\n        /* \"#utility.yul\":3548:3552   */\n      dup2\n        /* \"#utility.yul\":3539:3545   */\n      dup5\n        /* \"#utility.yul\":3475:3553   */\n      tag_109\n      jump\t// in\n    tag_145:\n        /* \"#utility.yul\":3467:3553   */\n      swap1\n      pop\n        /* \"#utility.yul\":3365:3560   */\n      swap3\n      swap2\n      pop\n      pop\n      jump\t// out\n        /* \"#utility.yul\":3566:3985   */\n    tag_45:\n        /* \"#utility.yul\":3732:3736   */\n      0x00\n        /* \"#utility.yul\":3770:3772   */\n      0x20\n        /* \"#utility.yul\":3759:3768   */\n      dup3\n        /* \"#utility.yul\":3755:3773   */\n      add\n        /* \"#utility.yul\":3747:3773   */\n      swap1\n      pop\n        /* \"#utility.yul\":3819:3828   */\n      dup2\n        /* \"#utility.yul\":3813:3817   */\n      dup2\n        /* \"#utility.yul\":3809:3829   */\n      sub\n        /* \"#utility.yul\":3805:3806   */\n      0x00\n        /* \"#utility.yul\":3794:3803   */\n      dup4\n        /* \"#utility.yul\":3790:3807   */\n      add\n        /* \"#utility.yul\":3783:3830   */\n      mstore\n        /* \"#utility.yul\":3847:3978   */\n      tag_147\n        /* \"#utility.yul\":3973:3977   */\n      dup2\n        /* \"#utility.yul\":3847:3978   */\n      tag_125\n      jump\t// in\n    tag_147:\n        /* \"#utility.yul\":3839:3978   */\n      swap1\n      pop\n        /* \"#utility.yul\":3737:3985   */\n      swap2\n      swap1\n      pop\n      jump\t// out\n        /* \"#utility.yul\":3991:4410   */\n    tag_41:\n        /* \"#utility.yul\":4157:4161   */\n      0x00\n        /* \"#utility.yul\":4195:4197   */\n      0x20\n        /* \"#utility.yul\":4184:4193   */\n      dup3\n        /* \"#utility.yul\":4180:4198   */\n      add\n        /* \"#utility.yul\":4172:4198   */\n      swap1\n      pop\n        /* \"#utility.yul\":4244:4253   */\n      dup2\n        /* \"#utility.yul\":4238:4242   */\n      dup2\n        /* \"#utility.yul\":4234:4254   */\n      sub\n        /* \"#utility.yul\":4230:4231   */\n      0x00\n        /* \"#utility.yul\":4219:4228   */\n      dup4\n        /* \"#utility.yul\":4215:4232   */\n      add\n        /* \"#utility.yul\":4208:4255   */\n      mstore\n        /* \"#utility.yul\":4272:4403   */\n      tag_149\n        /* \"#utility.yul\":4398:4402   */\n      dup2\n        /* \"#utility.yul\":4272:4403   */\n      tag_130\n      jump\t// in\n    tag_149:\n        /* \"#utility.yul\":4264:4403   */\n      swap1\n      pop\n        /* \"#utility.yul\":4162:4410   */\n      swap2\n      swap1\n      pop\n      jump\t// out\n        /* \"#utility.yul\":4416:4638   */\n    tag_23:\n        /* \"#utility.yul\":4509:4513   */\n      0x00\n        /* \"#utility.yul\":4547:4549   */\n      0x20\n        /* \"#utility.yul\":4536:4545   */\n      dup3\n        /* \"#utility.yul\":4532:4550   */\n      add\n        /* \"#utility.yul\":4524:4550   */\n      swap1\n      pop\n        /* \"#utility.yul\":4560:4631   */\n      tag_151\n        /* \"#utility.yul\":4628:4629   */\n      0x00\n        /* \"#utility.yul\":4617:4626   */\n      dup4\n        /* \"#utility.yul\":4613:4630   */\n      add\n        /* \"#utility.yul\":4604:4610   */\n      dup5\n        /* \"#utility.yul\":4560:4631   */\n      tag_135\n      jump\t// in\n    tag_151:\n        /* \"#utility.yul\":4514:4638   */\n      swap3\n      swap2\n      pop\n      pop\n      jump\t// out\n        /* \"#utility.yul\":4644:4743   */\n    tag_112:\n        /* \"#utility.yul\":4696:4702   */\n      0x00\n        /* \"#utility.yul\":4730:4735   */\n      dup2\n        /* \"#utility.yul\":4724:4736   */\n      mload\n        /* \"#utility.yul\":4714:4736   */\n      swap1\n      pop\n        /* \"#utility.yul\":4703:4743   */\n      swap2\n      swap1\n      pop\n      jump\t// out\n        /* \"#utility.yul\":4749:4918   */\n    tag_114:\n        /* \"#utility.yul\":4833:4844   */\n      0x00\n        /* \"#utility.yul\":4867:4873   */\n      dup3\n        /* \"#utility.yul\":4862:4865   */\n      dup3\n        /* \"#utility.yul\":4855:4874   */\n      mstore\n        /* \"#utility.yul\":4907:4911   */\n      0x20\n        /* \"#utility.yul\":4902:4905   */\n      dup3\n        /* \"#utility.yul\":4898:4912   */\n      add\n        /* \"#utility.yul\":4883:4912   */\n      swap1\n      pop\n        /* \"#utility.yul\":4845:4918   */\n      swap3\n      swap2\n      pop\n      pop\n      jump\t// out\n        /* \"#utility.yul\":4924:5072   */\n    tag_123:\n        /* \"#utility.yul\":5026:5037   */\n      0x00\n        /* \"#utility.yul\":5063:5066   */\n      dup2\n        /* \"#utility.yul\":5048:5066   */\n      swap1\n      pop\n        /* \"#utility.yul\":5038:5072   */\n      swap3\n      swap2\n      pop\n      pop\n      jump\t// out\n        /* \"#utility.yul\":5078:5383   */\n    tag_86:\n        /* \"#utility.yul\":5118:5121   */\n      0x00\n        /* \"#utility.yul\":5137:5157   */\n      tag_156\n        /* \"#utility.yul\":5155:5156   */\n      dup3\n        /* \"#utility.yul\":5137:5157   */\n      tag_138\n      jump\t// in\n    tag_156:\n        /* \"#utility.yul\":5132:5157   */\n      swap2\n      pop\n        /* \"#utility.yul\":5171:5191   */\n      tag_157\n        /* \"#utility.yul\":5189:5190   */\n      dup4\n        /* \"#utility.yul\":5171:5191   */\n      tag_138\n      jump\t// in\n    tag_157:\n        /* \"#utility.yul\":5166:5191   */\n      swap3\n      pop\n        /* \"#utility.yul\":5325:5326   */\n      dup3\n        /* \"#utility.yul\":5257:5323   */\n      0xffffffffffffffffffffffffffffffffffffffffffffffffffffffffffffffff\n        /* \"#utility.yul\":5253:5327   */\n      sub\n        /* \"#utility.yul\":5250:5251   */\n      dup3\n        /* \"#utility.yul\":5247:5328   */\n      gt\n        /* \"#utility.yul\":5244:5246   */\n      iszero\n      tag_158\n      jumpi\n        /* \"#utility.yul\":5331:5349   */\n      tag_159\n      tag_160\n      jump\t// in\n    tag_159:\n        /* \"#utility.yul\":5244:5246   */\n    tag_158:\n        /* \"#utility.yul\":5375:5376   */\n      dup3\n        /* \"#utility.yul\":5372:5373   */\n      dup3\n        /* \"#utility.yul\":5368:5377   */\n      add\n        /* \"#utility.yul\":5361:5377   */\n      swap1\n      pop\n        /* \"#utility.yul\":5122:5383   */\n      swap3\n      swap2\n      pop\n      pop\n      jump\t// out\n        /* \"#utility.yul\":5389:5574   */\n    tag_76:\n        /* \"#utility.yul\":5429:5430   */\n      0x00\n        /* \"#utility.yul\":5446:5466   */\n      tag_162\n        /* \"#utility.yul\":5464:5465   */\n      dup3\n        /* \"#utility.yul\":5446:5466   */\n      tag_138\n      jump\t// in\n    tag_162:\n        /* \"#utility.yul\":5441:5466   */\n      swap2\n      pop\n        /* \"#utility.yul\":5480:5500   */\n      tag_163\n        /* \"#utility.yul\":5498:5499   */\n      dup4\n        /* \"#utility.yul\":5480:5500   */\n      tag_138\n      jump\t// in\n    tag_163:\n        /* \"#utility.yul\":5475:5500   */\n      swap3\n      pop\n        /* \"#utility.yul\":5519:5520   */\n      dup3\n        /* \"#utility.yul\":5509:5511   */\n      tag_164\n      jumpi\n        /* \"#utility.yul\":5524:5542   */\n      tag_165\n      tag_166\n      jump\t// in\n    tag_165:\n        /* \"#utility.yul\":5509:5511   */\n    tag_164:\n        /* \"#utility.yul\":5566:5567   */\n      dup3\n        /* \"#utility.yul\":5563:5564   */\n      dup3\n        /* \"#utility.yul\":5559:5568   */\n      div\n        /* \"#utility.yul\":5554:5568   */\n      swap1\n      pop\n        /* \"#utility.yul\":5431:5574   */\n      swap3\n      swap2\n      pop\n      pop\n      jump\t// out\n        /* \"#utility.yul\":5580:5771   */\n    tag_82:\n        /* \"#utility.yul\":5620:5624   */\n      0x00\n        /* \"#utility.yul\":5640:5660   */\n      tag_168\n        /* \"#utility.yul\":5658:5659   */\n      dup3\n        /* \"#utility.yul\":5640:5660   */\n      tag_138\n      jump\t// in\n    tag_168:\n        /* \"#utility.yul\":5635:5660   */\n      swap2\n      pop\n        /* \"#utility.yul\":5674:5694   */\n      tag_169\n        /* \"#utility.yul\":5692:5693   */\n      dup4\n        /* \"#utility.yul\":5674:5694   */\n      tag_138\n      jump\t// in\n    tag_169:\n        /* \"#utility.yul\":5669:5694   */\n      swap3\n      pop\n        /* \"#utility.yul\":5713:5714   */\n      dup3\n        /* \"#utility.yul\":5710:5711   */\n      dup3\n        /* \"#utility.yul\":5707:5715   */\n      lt\n        /* \"#utility.yul\":5704:5706   */\n      iszero\n      tag_170\n      jumpi\n        /* \"#utility.yul\":5718:5736   */\n      tag_171\n      tag_160\n      jump\t// in\n    tag_171:\n        /* \"#utility.yul\":5704:5706   */\n    tag_170:\n        /* \"#utility.yul\":5763:5764   */\n      dup3\n        /* \"#utility.yul\":5760:5761   */\n      dup3\n        /* \"#utility.yul\":5756:5765   */\n      sub\n        /* \"#utility.yul\":5748:5765   */\n      swap1\n      pop\n        /* \"#utility.yul\":5625:5771   */\n      swap3\n      swap2\n      pop\n      pop\n      jump\t// out\n        /* \"#utility.yul\":5777:5873   */\n    tag_108:\n        /* \"#utility.yul\":5814:5821   */\n      0x00\n        /* \"#utility.yul\":5843:5867   */\n      tag_173\n        /* \"#utility.yul\":5861:5866   */\n      dup3\n        /* \"#utility.yul\":5843:5867   */\n      tag_174\n      jump\t// in\n    tag_173:\n        /* \"#utility.yul\":5832:5867   */\n      swap1\n      pop\n        /* \"#utility.yul\":5822:5873   */\n      swap2\n      swap1\n      pop\n      jump\t// out\n        /* \"#utility.yul\":5879:6005   */\n    tag_174:\n        /* \"#utility.yul\":5916:5923   */\n      0x00\n        /* \"#utility.yul\":5956:5998   */\n      0xffffffffffffffffffffffffffffffffffffffff\n        /* \"#utility.yul\":5949:5954   */\n      dup3\n        /* \"#utility.yul\":5945:5999   */\n      and\n        /* \"#utility.yul\":5934:5999   */\n      swap1\n      pop\n        /* \"#utility.yul\":5924:6005   */\n      swap2\n      swap1\n      pop\n      jump\t// out\n        /* \"#utility.yul\":6011:6088   */\n    tag_138:\n        /* \"#utility.yul\":6048:6055   */\n      0x00\n        /* \"#utility.yul\":6077:6082   */\n      dup2\n        /* \"#utility.yul\":6066:6082   */\n      swap1\n      pop\n        /* \"#utility.yul\":6056:6088   */\n      swap2\n      swap1\n      pop\n      jump\t// out\n        /* \"#utility.yul\":6094:6401   */\n    tag_116:\n        /* \"#utility.yul\":6162:6163   */\n      0x00\n        /* \"#utility.yul\":6172:6285   */\n    tag_178:\n        /* \"#utility.yul\":6186:6192   */\n      dup4\n        /* \"#utility.yul\":6183:6184   */\n      dup2\n        /* \"#utility.yul\":6180:6193   */\n      lt\n        /* \"#utility.yul\":6172:6285   */\n      iszero\n      tag_180\n      jumpi\n        /* \"#utility.yul\":6271:6272   */\n      dup1\n        /* \"#utility.yul\":6266:6269   */\n      dup3\n        /* \"#utility.yul\":6262:6273   */\n      add\n        /* \"#utility.yul\":6256:6274   */\n      mload\n        /* \"#utility.yul\":6252:6253   */\n      dup2\n        /* \"#utility.yul\":6247:6250   */\n      dup5\n        /* \"#utility.yul\":6243:6254   */\n      add\n        /* \"#utility.yul\":6236:6275   */\n      mstore\n        /* \"#utility.yul\":6208:6210   */\n      0x20\n        /* \"#utility.yul\":6205:6206   */\n      dup2\n        /* \"#utility.yul\":6201:6211   */\n      add\n        /* \"#utility.yul\":6196:6211   */\n      swap1\n      pop\n        /* \"#utility.yul\":6172:6285   */\n      jump(tag_178)\n    tag_180:\n        /* \"#utility.yul\":6303:6309   */\n      dup4\n        /* \"#utility.yul\":6300:6301   */\n      dup2\n        /* \"#utility.yul\":6297:6310   */\n      gt\n        /* \"#utility.yul\":6294:6296   */\n      iszero\n      tag_181\n      jumpi\n        /* \"#utility.yul\":6383:6384   */\n      0x00\n        /* \"#utility.yul\":6374:6380   */\n      dup5\n        /* \"#utility.yul\":6369:6372   */\n      dup5\n        /* \"#utility.yul\":6365:6381   */\n      add\n        /* \"#utility.yul\":6358:6385   */\n      mstore\n        /* \"#utility.yul\":6294:6296   */\n    tag_181:\n        /* \"#utility.yul\":6143:6401   */\n      pop\n      pop\n      pop\n      pop\n      jump\t// out\n        /* \"#utility.yul\":6407:6727   */\n    tag_33:\n        /* \"#utility.yul\":6451:6457   */\n      0x00\n        /* \"#utility.yul\":6488:6489   */\n      0x02\n        /* \"#utility.yul\":6482:6486   */\n      dup3\n        /* \"#utility.yul\":6478:6490   */\n      div\n        /* \"#utility.yul\":6468:6490   */\n      swap1\n      pop\n        /* \"#utility.yul\":6535:6536   */\n      0x01\n        /* \"#utility.yul\":6529:6533   */\n      dup3\n        /* \"#utility.yul\":6525:6537   */\n      and\n        /* \"#utility.yul\":6556:6574   */\n      dup1\n        /* \"#utility.yul\":6546:6548   */\n      tag_183\n      jumpi\n        /* \"#utility.yul\":6612:6616   */\n      0x7f\n        /* \"#utility.yul\":6604:6610   */\n      dup3\n        /* \"#utility.yul\":6600:6617   */\n      and\n        /* \"#utility.yul\":6590:6617   */\n      swap2\n      pop\n        /* \"#utility.yul\":6546:6548   */\n    tag_183:\n        /* \"#utility.yul\":6674:6676   */\n      0x20\n        /* \"#utility.yul\":6666:6672   */\n      dup3\n        /* \"#utility.yul\":6663:6677   */\n      lt\n        /* \"#utility.yul\":6643:6661   */\n      dup2\n        /* \"#utility.yul\":6640:6678   */\n      eq\n        /* \"#utility.yul\":6637:6639   */\n      iszero\n      tag_184\n      jumpi\n        /* \"#utility.yul\":6693:6711   */\n      tag_185\n      tag_186\n      jump\t// in\n    tag_185:\n        /* \"#utility.yul\":6637:6639   */\n    tag_184:\n        /* \"#utility.yul\":6458:6727   */\n      pop\n      swap2\n      swap1\n      pop\n      jump\t// out\n        /* \"#utility.yul\":6733:6966   */\n    tag_74:\n        /* \"#utility.yul\":6772:6775   */\n      0x00\n        /* \"#utility.yul\":6795:6819   */\n      tag_188\n        /* \"#utility.yul\":6813:6818   */\n      dup3\n        /* \"#utility.yul\":6795:6819   */\n      tag_138\n      jump\t// in\n    tag_188:\n        /* \"#utility.yul\":6786:6819   */\n      swap2\n      pop\n        /* \"#utility.yul\":6841:6907   */\n      0xffffffffffffffffffffffffffffffffffffffffffffffffffffffffffffffff\n        /* \"#utility.yul\":6834:6839   */\n      dup3\n        /* \"#utility.yul\":6831:6908   */\n      eq\n        /* \"#utility.yul\":6828:6830   */\n      iszero\n      tag_189\n      jumpi\n        /* \"#utility.yul\":6911:6929   */\n      tag_190\n      tag_160\n      jump\t// in\n    tag_190:\n        /* \"#utility.yul\":6828:6830   */\n    tag_189:\n        /* \"#utility.yul\":6958:6959   */\n      0x01\n        /* \"#utility.yul\":6951:6956   */\n      dup3\n        /* \"#utility.yul\":6947:6960   */\n      add\n        /* \"#utility.yul\":6940:6960   */\n      swap1\n      pop\n        /* \"#utility.yul\":6776:6966   */\n      swap2\n      swap1\n      pop\n      jump\t// out\n        /* \"#utility.yul\":6972:7148   */\n    tag_84:\n        /* \"#utility.yul\":7004:7005   */\n      0x00\n        /* \"#utility.yul\":7021:7041   */\n      tag_192\n        /* \"#utility.yul\":7039:7040   */\n      dup3\n        /* \"#utility.yul\":7021:7041   */\n      tag_138\n      jump\t// in\n    tag_192:\n        /* \"#utility.yul\":7016:7041   */\n      swap2\n      pop\n        /* \"#utility.yul\":7055:7075   */\n      tag_193\n        /* \"#utility.yul\":7073:7074   */\n      dup4\n        /* \"#utility.yul\":7055:7075   */\n      tag_138\n      jump\t// in\n    tag_193:\n        /* \"#utility.yul\":7050:7075   */\n      swap3\n      pop\n        /* \"#utility.yul\":7094:7095   */\n      dup3\n        /* \"#utility.yul\":7084:7086   */\n      tag_194\n      jumpi\n        /* \"#utility.yul\":7099:7117   */\n      tag_195\n      tag_166\n      jump\t// in\n    tag_195:\n        /* \"#utility.yul\":7084:7086   */\n    tag_194:\n        /* \"#utility.yul\":7140:7141   */\n      dup3\n        /* \"#utility.yul\":7137:7138   */\n      dup3\n        /* \"#utility.yul\":7133:7142   */\n      mod\n        /* \"#utility.yul\":7128:7142   */\n      swap1\n      pop\n        /* \"#utility.yul\":7006:7148   */\n      swap3\n      swap2\n      pop\n      pop\n      jump\t// out\n        /* \"#utility.yul\":7154:7334   */\n    tag_160:\n        /* \"#utility.yul\":7202:7279   */\n      0x4e487b7100000000000000000000000000000000000000000000000000000000\n        /* \"#utility.yul\":7199:7200   */\n      0x00\n        /* \"#utility.yul\":7192:7280   */\n      mstore\n        /* \"#utility.yul\":7299:7303   */\n      0x11\n        /* \"#utility.yul\":7296:7297   */\n      0x04\n        /* \"#utility.yul\":7289:7304   */\n      mstore\n        /* \"#utility.yul\":7323:7327   */\n      0x24\n        /* \"#utility.yul\":7320:7321   */\n      0x00\n        /* \"#utility.yul\":7313:7328   */\n      revert\n        /* \"#utility.yul\":7340:7520   */\n    tag_166:\n        /* \"#utility.yul\":7388:7465   */\n      0x4e487b7100000000000000000000000000000000000000000000000000000000\n        /* \"#utility.yul\":7385:7386   */\n      0x00\n        /* \"#utility.yul\":7378:7466   */\n      mstore\n        /* \"#utility.yul\":7485:7489   */\n      0x12\n        /* \"#utility.yul\":7482:7483   */\n      0x04\n        /* \"#utility.yul\":7475:7490   */\n      mstore\n        /* \"#utility.yul\":7509:7513   */\n      0x24\n        /* \"#utility.yul\":7506:7507   */\n      0x00\n        /* \"#utility.yul\":7499:7514   */\n      revert\n        /* \"#utility.yul\":7526:7706   */\n    tag_186:\n        /* \"#utility.yul\":7574:7651   */\n      0x4e487b7100000000000000000000000000000000000000000000000000000000\n        /* \"#utility.yul\":7571:7572   */\n      0x00\n        /* \"#utility.yul\":7564:7652   */\n      mstore\n        /* \"#utility.yul\":7671:7675   */\n      0x22\n        /* \"#utility.yul\":7668:7669   */\n      0x04\n        /* \"#utility.yul\":7661:7676   */\n      mstore\n        /* \"#utility.yul\":7695:7699   */\n      0x24\n        /* \"#utility.yul\":7692:7693   */\n      0x00\n        /* \"#utility.yul\":7685:7700   */\n      revert\n        /* \"#utility.yul\":7712:7814   */\n    tag_118:\n        /* \"#utility.yul\":7753:7759   */\n      0x00\n        /* \"#utility.yul\":7804:7806   */\n      0x1f\n        /* \"#utility.yul\":7800:7807   */\n      not\n        /* \"#utility.yul\":7795:7797   */\n      0x1f\n        /* \"#utility.yul\":7788:7793   */\n      dup4\n        /* \"#utility.yul\":7784:7798   */\n      add\n        /* \"#utility.yul\":7780:7808   */\n      and\n        /* \"#utility.yul\":7770:7808   */\n      swap1\n      pop\n        /* \"#utility.yul\":7760:7814   */\n      swap2\n      swap1\n      pop\n      jump\t// out\n        /* \"#utility.yul\":7820:8048   */\n    tag_129:\n        /* \"#utility.yul\":7960:7994   */\n      0x4552433732313a2061646472657373207a65726f206973206e6f742061207661\n        /* \"#utility.yul\":7956:7957   */\n      0x00\n        /* \"#utility.yul\":7948:7954   */\n      dup3\n        /* \"#utility.yul\":7944:7958   */\n      add\n        /* \"#utility.yul\":7937:7995   */\n      mstore\n        /* \"#utility.yul\":8029:8040   */\n      0x6c6964206f776e65720000000000000000000000000000000000000000000000\n        /* \"#utility.yul\":8024:8026   */\n      0x20\n        /* \"#utility.yul\":8016:8022   */\n      dup3\n        /* \"#utility.yul\":8012:8027   */\n      add\n        /* \"#utility.yul\":8005:8041   */\n      mstore\n        /* \"#utility.yul\":7926:8048   */\n      pop\n      jump\t// out\n        /* \"#utility.yul\":8054:8228   */\n    tag_134:\n        /* \"#utility.yul\":8194:8220   */\n      0x4552433732313a20696e76616c696420746f6b656e2049440000000000000000\n        /* \"#utility.yul\":8190:8191   */\n      0x00\n        /* \"#utility.yul\":8182:8188   */\n      dup3\n        /* \"#utility.yul\":8178:8192   */\n      add\n        /* \"#utility.yul\":8171:8221   */\n      mstore\n        /* \"#utility.yul\":8160:8228   */\n      pop\n      jump\t// out\n        /* \"#utility.yul\":8234:8356   */\n    tag_94:\n        /* \"#utility.yul\":8307:8331   */\n      tag_203\n        /* \"#utility.yul\":8325:8330   */\n      dup2\n        /* \"#utility.yul\":8307:8331   */\n      tag_108\n      jump\t// in\n    tag_203:\n        /* \"#utility.yul\":8300:8305   */\n      dup2\n        /* \"#utility.yul\":8297:8332   */\n      eq\n        /* \"#utility.yul\":8287:8289   */\n      tag_204\n      jumpi\n        /* \"#utility.yul\":8346:8347   */\n      0x00\n        /* \"#utility.yul\":8343:8344   */\n      dup1\n        /* \"#utility.yul\":8336:8348   */\n      revert\n        /* \"#utility.yul\":8287:8289   */\n    tag_204:\n        /* \"#utility.yul\":8277:8356   */\n      pop\n      jump\t// out\n        /* \"#utility.yul\":8362:8484   */\n    tag_98:\n        /* \"#utility.yul\":8435:8459   */\n      tag_206\n        /* \"#utility.yul\":8453:8458   */\n      dup2\n        /* \"#utility.yul\":8435:8459   */\n      tag_138\n      jump\t// in\n    tag_206:\n        /* \"#utility.yul\":8428:8433   */\n      dup2\n        /* \"#utility.yul\":8425:8460   */\n      eq\n        /* \"#utility.yul\":8415:8417   */\n      tag_207\n      jumpi\n        /* \"#utility.yul\":8474:8475   */\n      0x00\n        /* \"#utility.yul\":8471:8472   */\n      dup1\n        /* \"#utility.yul\":8464:8476   */\n      revert\n        /* \"#utility.yul\":8415:8417   */\n    tag_207:\n        /* \"#utility.yul\":8405:8484   */\n      pop\n      jump\t// out\n\n    auxdata: 0xa2646970667358221220f631ac243d086c5d6ebc2caae2018b5507aeeb33c709d4d5b2752d20e1c2f5a364736f6c63430008040033\n}\n",
				"bytecode": {
					"linkReferences": {},
					"object": "60806040523480156200001157600080fd5b5060405162000f9c38038062000f9c833981810160405281019062000037919062000193565b81600090805190602001906200004f92919062000071565b5080600190805190602001906200006892919062000071565b50505062000376565b8280546200007f906200029b565b90600052602060002090601f016020900481019282620000a35760008555620000ef565b82601f10620000be57805160ff1916838001178555620000ef565b82800160010185558215620000ef579182015b82811115620000ee578251825591602001919060010190620000d1565b5b509050620000fe919062000102565b5090565b5b808211156200011d57600081600090555060010162000103565b5090565b60006200013862000132846200022f565b62000206565b9050828152602081018484840111156200015157600080fd5b6200015e84828562000265565b509392505050565b600082601f8301126200017857600080fd5b81516200018a84826020860162000121565b91505092915050565b60008060408385031215620001a757600080fd5b600083015167ffffffffffffffff811115620001c257600080fd5b620001d08582860162000166565b925050602083015167ffffffffffffffff811115620001ee57600080fd5b620001fc8582860162000166565b9150509250929050565b60006200021262000225565b9050620002208282620002d1565b919050565b6000604051905090565b600067ffffffffffffffff8211156200024d576200024c62000336565b5b620002588262000365565b9050602081019050919050565b60005b838110156200028557808201518184015260208101905062000268565b8381111562000295576000848401525b50505050565b60006002820490506001821680620002b457607f821691505b60208210811415620002cb57620002ca62000307565b5b50919050565b620002dc8262000365565b810181811067ffffffffffffffff82111715620002fe57620002fd62000336565b5b80604052505050565b7f4e487b7100000000000000000000000000000000000000000000000000000000600052602260045260246000fd5b7f4e487b7100000000000000000000000000000000000000000000000000000000600052604160045260246000fd5b6000601f19601f8301169050919050565b610c1680620003866000396000f3fe608060405234801561001057600080fd5b50600436106100575760003560e01c806306fdde031461005c5780636352211e1461007a57806370a08231146100aa57806395d89b41146100da578063c87b56dd146100f8575b600080fd5b610064610128565b6040516100719190610822565b60405180910390f35b610094600480360381019061008f91906106ec565b6101ba565b6040516100a19190610807565b60405180910390f35b6100c460048036038101906100bf91906106c3565b61026c565b6040516100d19190610884565b60405180910390f35b6100e2610324565b6040516100ef9190610822565b60405180910390f35b610112600480360381019061010d91906106ec565b6103b6565b60405161011f9190610822565b60405180910390f35b606060008054610137906109f0565b80601f0160208091040260200160405190810160405280929190818152602001828054610163906109f0565b80156101b05780601f10610185576101008083540402835291602001916101b0565b820191906000526020600020905b81548152906001019060200180831161019357829003601f168201915b5050505050905090565b6000806002600084815260200190815260200160002060009054906101000a900473ffffffffffffffffffffffffffffffffffffffff169050600073ffffffffffffffffffffffffffffffffffffffff168173ffffffffffffffffffffffffffffffffffffffff161415610263576040517f08c379a000000000000000000000000000000000000000000000000000000000815260040161025a90610864565b60405180910390fd5b80915050919050565b60008073ffffffffffffffffffffffffffffffffffffffff168273ffffffffffffffffffffffffffffffffffffffff1614156102dd576040517f08c379a00000000000000000000000000000000000000000000000000000000081526004016102d490610844565b60405180910390fd5b600360008373ffffffffffffffffffffffffffffffffffffffff1673ffffffffffffffffffffffffffffffffffffffff168152602001908152602001600020549050919050565b606060018054610333906109f0565b80601f016020809104026020016040519081016040528092919081815260200182805461035f906109f0565b80156103ac5780601f10610381576101008083540402835291602001916103ac565b820191906000526020600020905b81548152906001019060200180831161038f57829003601f168201915b5050505050905090565b60606103c18261041e565b60006103cb610469565b905060008151116103eb5760405180602001604052806000815250610416565b806103f584610480565b6040516020016104069291906107e3565b6040516020818303038152906040525b915050919050565b6104278161062d565b610466576040517f08c379a000000000000000000000000000000000000000000000000000000000815260040161045d90610864565b60405180910390fd5b50565b606060405180602001604052806000815250905090565b606060008214156104c8576040518060400160405280600181526020017f30000000000000000000000000000000000000000000000000000000000000008152509050610628565b600082905060005b600082146104fa5780806104e390610a22565b915050600a826104f3919061091c565b91506104d0565b60008167ffffffffffffffff81111561053c577f4e487b7100000000000000000000000000000000000000000000000000000000600052604160045260246000fd5b6040519080825280601f01601f19166020018201604052801561056e5781602001600182028036833780820191505090505b5090505b6000851461062157600182610587919061094d565b9150600a856105969190610a6b565b60306105a291906108c6565b60f81b8183815181106105de577f4e487b7100000000000000000000000000000000000000000000000000000000600052603260045260246000fd5b60200101907effffffffffffffffffffffffffffffffffffffffffffffffffffffffffffff1916908160001a905350600a8561061a919061091c565b9450610572565b8093505050505b919050565b60008073ffffffffffffffffffffffffffffffffffffffff166002600084815260200190815260200160002060009054906101000a900473ffffffffffffffffffffffffffffffffffffffff1673ffffffffffffffffffffffffffffffffffffffff1614159050919050565b6000813590506106a881610bb2565b92915050565b6000813590506106bd81610bc9565b92915050565b6000602082840312156106d557600080fd5b60006106e384828501610699565b91505092915050565b6000602082840312156106fe57600080fd5b600061070c848285016106ae565b91505092915050565b61071e81610981565b82525050565b600061072f8261089f565b61073981856108aa565b93506107498185602086016109bd565b61075281610b29565b840191505092915050565b60006107688261089f565b61077281856108bb565b93506107828185602086016109bd565b80840191505092915050565b600061079b6029836108aa565b91506107a682610b3a565b604082019050919050565b60006107be6018836108aa565b91506107c982610b89565b602082019050919050565b6107dd816109b3565b82525050565b60006107ef828561075d565b91506107fb828461075d565b91508190509392505050565b600060208201905061081c6000830184610715565b92915050565b6000602082019050818103600083015261083c8184610724565b905092915050565b6000602082019050818103600083015261085d8161078e565b9050919050565b6000602082019050818103600083015261087d816107b1565b9050919050565b600060208201905061089960008301846107d4565b92915050565b600081519050919050565b600082825260208201905092915050565b600081905092915050565b60006108d1826109b3565b91506108dc836109b3565b9250827fffffffffffffffffffffffffffffffffffffffffffffffffffffffffffffffff0382111561091157610910610a9c565b5b828201905092915050565b6000610927826109b3565b9150610932836109b3565b92508261094257610941610acb565b5b828204905092915050565b6000610958826109b3565b9150610963836109b3565b92508282101561097657610975610a9c565b5b828203905092915050565b600061098c82610993565b9050919050565b600073ffffffffffffffffffffffffffffffffffffffff82169050919050565b6000819050919050565b60005b838110156109db5780820151818401526020810190506109c0565b838111156109ea576000848401525b50505050565b60006002820490506001821680610a0857607f821691505b60208210811415610a1c57610a1b610afa565b5b50919050565b6000610a2d826109b3565b91507fffffffffffffffffffffffffffffffffffffffffffffffffffffffffffffffff821415610a6057610a5f610a9c565b5b600182019050919050565b6000610a76826109b3565b9150610a81836109b3565b925082610a9157610a90610acb565b5b828206905092915050565b7f4e487b7100000000000000000000000000000000000000000000000000000000600052601160045260246000fd5b7f4e487b7100000000000000000000000000000000000000000000000000000000600052601260045260246000fd5b7f4e487b7100000000000000000000000000000000000000000000000000000000600052602260045260246000fd5b6000601f19601f8301169050919050565b7f4552433732313a2061646472657373207a65726f206973206e6f74206120766160008201527f6c6964206f776e65720000000000000000000000000000000000000000000000602082015250565b7f4552433732313a20696e76616c696420746f6b656e2049440000000000000000600082015250565b610bbb81610981565b8114610bc657600080fd5b50565b610bd2816109b3565b8114610bdd57600080fd5b5056fea2646970667358221220f631ac243d086c5d6ebc2caae2018b5507aeeb33c709d4d5b2752d20e1c2f5a364736f6c63430008040033",
					"opcodes": "PUSH1 0x80 PUSH1 0x40 MSTORE CALLVALUE DUP1 ISZERO PUSH3 0x11 JUMPI PUSH1 0x0 DUP1 REVERT JUMPDEST POP PUSH1 0x40 MLOAD PUSH3 0xF9C CODESIZE SUB DUP1 PUSH3 0xF9C DUP4 CODECOPY DUP2 DUP2 ADD PUSH1 0x40 MSTORE DUP2 ADD SWAP1 PUSH3 0x37 SWAP2 SWAP1 PUSH3 0x193 JUMP JUMPDEST DUP2 PUSH1 0x0 SWAP1 DUP1 MLOAD SWAP1 PUSH1 0x20 ADD SWAP1 PUSH3 0x4F SWAP3 SWAP2 SWAP1 PUSH3 0x71 JUMP JUMPDEST POP DUP1 PUSH1 0x1 SWAP1 DUP1 MLOAD SWAP1 PUSH1 0x20 ADD SWAP1 PUSH3 0x68 SWAP3 SWAP2 SWAP1 PUSH3 0x71 JUMP JUMPDEST POP POP POP PUSH3 0x376 JUMP JUMPDEST DUP3 DUP1 SLOAD PUSH3 0x7F SWAP1 PUSH3 0x29B JUMP JUMPDEST SWAP1 PUSH1 0x0 MSTORE PUSH1 0x20 PUSH1 0x0 KECCAK256 SWAP1 PUSH1 0x1F ADD PUSH1 0x20 SWAP1 DIV DUP2 ADD SWAP3 DUP3 PUSH3 0xA3 JUMPI PUSH1 0x0 DUP6 SSTORE PUSH3 0xEF JUMP JUMPDEST DUP3 PUSH1 0x1F LT PUSH3 0xBE JUMPI DUP1 MLOAD PUSH1 0xFF NOT AND DUP4 DUP1 ADD OR DUP6 SSTORE PUSH3 0xEF JUMP JUMPDEST DUP3 DUP1 ADD PUSH1 0x1 ADD DUP6 SSTORE DUP3 ISZERO PUSH3 0xEF JUMPI SWAP2 DUP3 ADD JUMPDEST DUP3 DUP2 GT ISZERO PUSH3 0xEE JUMPI DUP3 MLOAD DUP3 SSTORE SWAP2 PUSH1 0x20 ADD SWAP2 SWAP1 PUSH1 0x1 ADD SWAP1 PUSH3 0xD1 JUMP JUMPDEST JUMPDEST POP SWAP1 POP PUSH3 0xFE SWAP2 SWAP1 PUSH3 0x102 JUMP JUMPDEST POP SWAP1 JUMP JUMPDEST JUMPDEST DUP1 DUP3 GT ISZERO PUSH3 0x11D JUMPI PUSH1 0x0 DUP2 PUSH1 0x0 SWAP1 SSTORE POP PUSH1 0x1 ADD PUSH3 0x103 JUMP JUMPDEST POP SWAP1 JUMP JUMPDEST PUSH1 0x0 PUSH3 0x138 PUSH3 0x132 DUP5 PUSH3 0x22F JUMP JUMPDEST PUSH3 0x206 JUMP JUMPDEST SWAP1 POP DUP3 DUP2 MSTORE PUSH1 0x20 DUP2 ADD DUP5 DUP5 DUP5 ADD GT ISZERO PUSH3 0x151 JUMPI PUSH1 0x0 DUP1 REVERT JUMPDEST PUSH3 0x15E DUP5 DUP3 DUP6 PUSH3 0x265 JUMP JUMPDEST POP SWAP4 SWAP3 POP POP POP JUMP JUMPDEST PUSH1 0x0 DUP3 PUSH1 0x1F DUP4 ADD SLT PUSH3 0x178 JUMPI PUSH1 0x0 DUP1 REVERT JUMPDEST DUP2 MLOAD PUSH3 0x18A DUP5 DUP3 PUSH1 0x20 DUP7 ADD PUSH3 0x121 JUMP JUMPDEST SWAP2 POP POP SWAP3 SWAP2 POP POP JUMP JUMPDEST PUSH1 0x0 DUP1 PUSH1 0x40 DUP4 DUP6 SUB SLT ISZERO PUSH3 0x1A7 JUMPI PUSH1 0x0 DUP1 REVERT JUMPDEST PUSH1 0x0 DUP4 ADD MLOAD PUSH8 0xFFFFFFFFFFFFFFFF DUP2 GT ISZERO PUSH3 0x1C2 JUMPI PUSH1 0x0 DUP1 REVERT JUMPDEST PUSH3 0x1D0 DUP6 DUP3 DUP7 ADD PUSH3 0x166 JUMP JUMPDEST SWAP3 POP POP PUSH1 0x20 DUP4 ADD MLOAD PUSH8 0xFFFFFFFFFFFFFFFF DUP2 GT ISZERO PUSH3 0x1EE JUMPI PUSH1 0x0 DUP1 REVERT JUMPDEST PUSH3 0x1FC DUP6 DUP3 DUP7 ADD PUSH3 0x166 JUMP JUMPDEST SWAP2 POP POP SWAP3 POP SWAP3 SWAP1 POP JUMP JUMPDEST PUSH1 0x0 PUSH3 0x212 PUSH3 0x225 JUMP JUMPDEST SWAP1 POP PUSH3 0x220 DUP3 DUP3 PUSH3 0x2D1 JUMP JUMPDEST SWAP2 SWAP1 POP JUMP JUMPDEST PUSH1 0x0 PUSH1 0x40 MLOAD SWAP1 POP SWAP1 JUMP JUMPDEST PUSH1 0x0 PUSH8 0xFFFFFFFFFFFFFFFF DUP3 GT ISZERO PUSH3 0x24D JUMPI PUSH3 0x24C PUSH3 0x336 JUMP JUMPDEST JUMPDEST PUSH3 0x258 DUP3 PUSH3 0x365 JUMP JUMPDEST SWAP1 POP PUSH1 0x20 DUP2 ADD SWAP1 POP SWAP2 SWAP1 POP JUMP JUMPDEST PUSH1 0x0 JUMPDEST DUP4 DUP2 LT ISZERO PUSH3 0x285 JUMPI DUP1 DUP3 ADD MLOAD DUP2 DUP5 ADD MSTORE PUSH1 0x20 DUP2 ADD SWAP1 POP PUSH3 0x268 JUMP JUMPDEST DUP4 DUP2 GT ISZERO PUSH3 0x295 JUMPI PUSH1 0x0 DUP5 DUP5 ADD MSTORE JUMPDEST POP POP POP POP JUMP JUMPDEST PUSH1 0x0 PUSH1 0x2 DUP3 DIV SWAP1 POP PUSH1 0x1 DUP3 AND DUP1 PUSH3 0x2B4 JUMPI PUSH1 0x7F DUP3 AND SWAP2 POP JUMPDEST PUSH1 0x20 DUP3 LT DUP2 EQ ISZERO PUSH3 0x2CB JUMPI PUSH3 0x2CA PUSH3 0x307 JUMP JUMPDEST JUMPDEST POP SWAP2 SWAP1 POP JUMP JUMPDEST PUSH3 0x2DC DUP3 PUSH3 0x365 JUMP JUMPDEST DUP2 ADD DUP2 DUP2 LT PUSH8 0xFFFFFFFFFFFFFFFF DUP3 GT OR ISZERO PUSH3 0x2FE JUMPI PUSH3 0x2FD PUSH3 0x336 JUMP JUMPDEST JUMPDEST DUP1 PUSH1 0x40 MSTORE POP POP POP JUMP JUMPDEST PUSH32 0x4E487B7100000000000000000000000000000000000000000000000000000000 PUSH1 0x0 MSTORE PUSH1 0x22 PUSH1 0x4 MSTORE PUSH1 0x24 PUSH1 0x0 REVERT JUMPDEST PUSH32 0x4E487B7100000000000000000000000000000000000000000000000000000000 PUSH1 0x0 MSTORE PUSH1 0x41 PUSH1 0x4 MSTORE PUSH1 0x24 PUSH1 0x0 REVERT JUMPDEST PUSH1 0x0 PUSH1 0x1F NOT PUSH1 0x1F DUP4 ADD AND SWAP1 POP SWAP2 SWAP1 POP JUMP JUMPDEST PUSH2 0xC16 DUP1 PUSH3 0x386 PUSH1 0x0 CODECOPY PUSH1 0x0 RETURN INVALID PUSH1 0x80 PUSH1 0x40 MSTORE CALLVALUE DUP1 ISZERO PUSH2 0x10 JUMPI PUSH1 0x0 DUP1 REVERT JUMPDEST POP PUSH1 0x4 CALLDATASIZE LT PUSH2 0x57 JUMPI PUSH1 0x0 CALLDATALOAD PUSH1 0xE0 SHR DUP1 PUSH4 0x6FDDE03 EQ PUSH2 0x5C JUMPI DUP1 PUSH4 0x6352211E EQ PUSH2 0x7A JUMPI DUP1 PUSH4 0x70A08231 EQ PUSH2 0xAA JUMPI DUP1 PUSH4 0x95D89B41 EQ PUSH2 0xDA JUMPI DUP1 PUSH4 0xC87B56DD EQ PUSH2 0xF8 JUMPI JUMPDEST PUSH1 0x0 DUP1 REVERT JUMPDEST PUSH2 0x64 PUSH2 0x128 JUMP JUMPDEST PUSH1 0x40 MLOAD PUSH2 0x71 SWAP2 SWAP1 PUSH2 0x822 JUMP JUMPDEST PUSH1 0x40 MLOAD DUP1 SWAP2 SUB SWAP1 RETURN JUMPDEST PUSH2 0x94 PUSH1 0x4 DUP1 CALLDATASIZE SUB DUP2 ADD SWAP1 PUSH2 0x8F SWAP2 SWAP1 PUSH2 0x6EC JUMP JUMPDEST PUSH2 0x1BA JUMP JUMPDEST PUSH1 0x40 MLOAD PUSH2 0xA1 SWAP2 SWAP1 PUSH2 0x807 JUMP JUMPDEST PUSH1 0x40 MLOAD DUP1 SWAP2 SUB SWAP1 RETURN JUMPDEST PUSH2 0xC4 PUSH1 0x4 DUP1 CALLDATASIZE SUB DUP2 ADD SWAP1 PUSH2 0xBF SWAP2 SWAP1 PUSH2 0x6C3 JUMP JUMPDEST PUSH2 0x26C JUMP JUMPDEST PUSH1 0x40 MLOAD PUSH2 0xD1 SWAP2 SWAP1 PUSH2 0x884 JUMP JUMPDEST PUSH1 0x40 MLOAD DUP1 SWAP2 SUB SWAP1 RETURN JUMPDEST PUSH2 0xE2 PUSH2 0x324 JUMP JUMPDEST PUSH1 0x40 MLOAD PUSH2 0xEF SWAP2 SWAP1 PUSH2 0x822 JUMP JUMPDEST PUSH1 0x40 MLOAD DUP1 SWAP2 SUB SWAP1 RETURN JUMPDEST PUSH2 0x112 PUSH1 0x4 DUP1 CALLDATASIZE SUB DUP2 ADD SWAP1 PUSH2 0x10D SWAP2 SWAP1 PUSH2 0x6EC JUMP JUMPDEST PUSH2 0x3B6 JUMP JUMPDEST PUSH1 0x40 MLOAD PUSH2 0x11F SWAP2 SWAP1 PUSH2 0x822 JUMP JUMPDEST PUSH1 0x40 MLOAD DUP1 SWAP2 SUB SWAP1 RETURN JUMPDEST PUSH1 0x60 PUSH1 0x0 DUP1 SLOAD PUSH2 0x137 SWAP1 PUSH2 0x9F0 JUMP JUMPDEST DUP1 PUSH1 0x1F ADD PUSH1 0x20 DUP1 SWAP2 DIV MUL PUSH1 0x20 ADD PUSH1 0x40 MLOAD SWAP1 DUP2 ADD PUSH1 0x40 MSTORE DUP1 SWAP3 SWAP2 SWAP1 DUP2 DUP2 MSTORE PUSH1 0x20 ADD DUP3 DUP1 SLOAD PUSH2 0x163 SWAP1 PUSH2 0x9F0 JUMP JUMPDEST DUP1 ISZERO PUSH2 0x1B0 JUMPI DUP1 PUSH1 0x1F LT PUSH2 0x185 JUMPI PUSH2 0x100 DUP1 DUP4 SLOAD DIV MUL DUP4 MSTORE SWAP2 PUSH1 0x20 ADD SWAP2 PUSH2 0x1B0 JUMP JUMPDEST DUP3 ADD SWAP2 SWAP1 PUSH1 0x0 MSTORE PUSH1 0x20 PUSH1 0x0 KECCAK256 SWAP1 JUMPDEST DUP2 SLOAD DUP2 MSTORE SWAP1 PUSH1 0x1 ADD SWAP1 PUSH1 0x20 ADD DUP1 DUP4 GT PUSH2 0x193 JUMPI DUP3 SWAP1 SUB PUSH1 0x1F AND DUP3 ADD SWAP2 JUMPDEST POP POP POP POP POP SWAP1 POP SWAP1 JUMP JUMPDEST PUSH1 0x0 DUP1 PUSH1 0x2 PUSH1 0x0 DUP5 DUP2 MSTORE PUSH1 0x20 ADD SWAP1 DUP2 MSTORE PUSH1 0x20 ADD PUSH1 0x0 KECCAK256 PUSH1 0x0 SWAP1 SLOAD SWAP1 PUSH2 0x100 EXP SWAP1 DIV PUSH20 0xFFFFFFFFFFFFFFFFFFFFFFFFFFFFFFFFFFFFFFFF AND SWAP1 POP PUSH1 0x0 PUSH20 0xFFFFFFFFFFFFFFFFFFFFFFFFFFFFFFFFFFFFFFFF AND DUP2 PUSH20 0xFFFFFFFFFFFFFFFFFFFFFFFFFFFFFFFFFFFFFFFF AND EQ ISZERO PUSH2 0x263 JUMPI PUSH1 0x40 MLOAD PUSH32 0x8C379A000000000000000000000000000000000000000000000000000000000 DUP2 MSTORE PUSH1 0x4 ADD PUSH2 0x25A SWAP1 PUSH2 0x864 JUMP JUMPDEST PUSH1 0x40 MLOAD DUP1 SWAP2 SUB SWAP1 REVERT JUMPDEST DUP1 SWAP2 POP POP SWAP2 SWAP1 POP JUMP JUMPDEST PUSH1 0x0 DUP1 PUSH20 0xFFFFFFFFFFFFFFFFFFFFFFFFFFFFFFFFFFFFFFFF AND DUP3 PUSH20 0xFFFFFFFFFFFFFFFFFFFFFFFFFFFFFFFFFFFFFFFF AND EQ ISZERO PUSH2 0x2DD JUMPI PUSH1 0x40 MLOAD PUSH32 0x8C379A000000000000000000000000000000000000000000000000000000000 DUP2 MSTORE PUSH1 0x4 ADD PUSH2 0x2D4 SWAP1 PUSH2 0x844 JUMP JUMPDEST PUSH1 0x40 MLOAD DUP1 SWAP2 SUB SWAP1 REVERT JUMPDEST PUSH1 0x3 PUSH1 0x0 DUP4 PUSH20 0xFFFFFFFFFFFFFFFFFFFFFFFFFFFFFFFFFFFFFFFF AND PUSH20 0xFFFFFFFFFFFFFFFFFFFFFFFFFFFFFFFFFFFFFFFF AND DUP2 MSTORE PUSH1 0x20 ADD SWAP1 DUP2 MSTORE PUSH1 0x20 ADD PUSH1 0x0 KECCAK256 SLOAD SWAP1 POP SWAP2 SWAP1 POP JUMP JUMPDEST PUSH1 0x60 PUSH1 0x1 DUP1 SLOAD PUSH2 0x333 SWAP1 PUSH2 0x9F0 JUMP JUMPDEST DUP1 PUSH1 0x1F ADD PUSH1 0x20 DUP1 SWAP2 DIV MUL PUSH1 0x20 ADD PUSH1 0x40 MLOAD SWAP1 DUP2 ADD PUSH1 0x40 MSTORE DUP1 SWAP3 SWAP2 SWAP1 DUP2 DUP2 MSTORE PUSH1 0x20 ADD DUP3 DUP1 SLOAD PUSH2 0x35F SWAP1 PUSH2 0x9F0 JUMP JUMPDEST DUP1 ISZERO PUSH2 0x3AC JUMPI DUP1 PUSH1 0x1F LT PUSH2 0x381 JUMPI PUSH2 0x100 DUP1 DUP4 SLOAD DIV MUL DUP4 MSTORE SWAP2 PUSH1 0x20 ADD SWAP2 PUSH2 0x3AC JUMP JUMPDEST DUP3 ADD SWAP2 SWAP1 PUSH1 0x0 MSTORE PUSH1 0x20 PUSH1 0x0 KECCAK256 SWAP1 JUMPDEST DUP2 SLOAD DUP2 MSTORE SWAP1 PUSH1 0x1 ADD SWAP1 PUSH1 0x20 ADD DUP1 DUP4 GT PUSH2 0x38F JUMPI DUP3 SWAP1 SUB PUSH1 0x1F AND DUP3 ADD SWAP2 JUMPDEST POP POP POP POP POP SWAP1 POP SWAP1 JUMP JUMPDEST PUSH1 0x60 PUSH2 0x3C1 DUP3 PUSH2 0x41E JUMP JUMPDEST PUSH1 0x0 PUSH2 0x3CB PUSH2 0x469 JUMP JUMPDEST SWAP1 POP PUSH1 0x0 DUP2 MLOAD GT PUSH2 0x3EB JUMPI PUSH1 0x40 MLOAD DUP1 PUSH1 0x20 ADD PUSH1 0x40 MSTORE DUP1 PUSH1 0x0 DUP2 MSTORE POP PUSH2 0x416 JUMP JUMPDEST DUP1 PUSH2 0x3F5 DUP5 PUSH2 0x480 JUMP JUMPDEST PUSH1 0x40 MLOAD PUSH1 0x20 ADD PUSH2 0x406 SWAP3 SWAP2 SWAP1 PUSH2 0x7E3 JUMP JUMPDEST PUSH1 0x40 MLOAD PUSH1 0x20 DUP2 DUP4 SUB SUB DUP2 MSTORE SWAP1 PUSH1 0x40 MSTORE JUMPDEST SWAP2 POP POP SWAP2 SWAP1 POP JUMP JUMPDEST PUSH2 0x427 DUP2 PUSH2 0x62D JUMP JUMPDEST PUSH2 0x466 JUMPI PUSH1 0x40 MLOAD PUSH32 0x8C379A000000000000000000000000000000000000000000000000000000000 DUP2 MSTORE PUSH1 0x4 ADD PUSH2 0x45D SWAP1 PUSH2 0x864 JUMP JUMPDEST PUSH1 0x40 MLOAD DUP1 SWAP2 SUB SWAP1 REVERT JUMPDEST POP JUMP JUMPDEST PUSH1 0x60 PUSH1 0x40 MLOAD DUP1 PUSH1 0x20 ADD PUSH1 0x40 MSTORE DUP1 PUSH1 0x0 DUP2 MSTORE POP SWAP1 POP SWAP1 JUMP JUMPDEST PUSH1 0x60 PUSH1 0x0 DUP3 EQ ISZERO PUSH2 0x4C8 JUMPI PUSH1 0x40 MLOAD DUP1 PUSH1 0x40 ADD PUSH1 0x40 MSTORE DUP1 PUSH1 0x1 DUP2 MSTORE PUSH1 0x20 ADD PUSH32 0x3000000000000000000000000000000000000000000000000000000000000000 DUP2 MSTORE POP SWAP1 POP PUSH2 0x628 JUMP JUMPDEST PUSH1 0x0 DUP3 SWAP1 POP PUSH1 0x0 JUMPDEST PUSH1 0x0 DUP3 EQ PUSH2 0x4FA JUMPI DUP1 DUP1 PUSH2 0x4E3 SWAP1 PUSH2 0xA22 JUMP JUMPDEST SWAP2 POP POP PUSH1 0xA DUP3 PUSH2 0x4F3 SWAP2 SWAP1 PUSH2 0x91C JUMP JUMPDEST SWAP2 POP PUSH2 0x4D0 JUMP JUMPDEST PUSH1 0x0 DUP2 PUSH8 0xFFFFFFFFFFFFFFFF DUP2 GT ISZERO PUSH2 0x53C JUMPI PUSH32 0x4E487B7100000000000000000000000000000000000000000000000000000000 PUSH1 0x0 MSTORE PUSH1 0x41 PUSH1 0x4 MSTORE PUSH1 0x24 PUSH1 0x0 REVERT JUMPDEST PUSH1 0x40 MLOAD SWAP1 DUP1 DUP3 MSTORE DUP1 PUSH1 0x1F ADD PUSH1 0x1F NOT AND PUSH1 0x20 ADD DUP3 ADD PUSH1 0x40 MSTORE DUP1 ISZERO PUSH2 0x56E JUMPI DUP2 PUSH1 0x20 ADD PUSH1 0x1 DUP3 MUL DUP1 CALLDATASIZE DUP4 CALLDATACOPY DUP1 DUP3 ADD SWAP2 POP POP SWAP1 POP JUMPDEST POP SWAP1 POP JUMPDEST PUSH1 0x0 DUP6 EQ PUSH2 0x621 JUMPI PUSH1 0x1 DUP3 PUSH2 0x587 SWAP2 SWAP1 PUSH2 0x94D JUMP JUMPDEST SWAP2 POP PUSH1 0xA DUP6 PUSH2 0x596 SWAP2 SWAP1 PUSH2 0xA6B JUMP JUMPDEST PUSH1 0x30 PUSH2 0x5A2 SWAP2 SWAP1 PUSH2 0x8C6 JUMP JUMPDEST PUSH1 0xF8 SHL DUP2 DUP4 DUP2 MLOAD DUP2 LT PUSH2 0x5DE JUMPI PUSH32 0x4E487B7100000000000000000000000000000000000000000000000000000000 PUSH1 0x0 MSTORE PUSH1 0x32 PUSH1 0x4 MSTORE PUSH1 0x24 PUSH1 0x0 REVERT JUMPDEST PUSH1 0x20 ADD ADD SWAP1 PUSH31 0xFFFFFFFFFFFFFFFFFFFFFFFFFFFFFFFFFFFFFFFFFFFFFFFFFFFFFFFFFFFFFF NOT AND SWAP1 DUP2 PUSH1 0x0 BYTE SWAP1 MSTORE8 POP PUSH1 0xA DUP6 PUSH2 0x61A SWAP2 SWAP1 PUSH2 0x91C JUMP JUMPDEST SWAP5 POP PUSH2 0x572 JUMP JUMPDEST DUP1 SWAP4 POP POP POP POP JUMPDEST SWAP2 SWAP1 POP JUMP JUMPDEST PUSH1 0x0 DUP1 PUSH20 0xFFFFFFFFFFFFFFFFFFFFFFFFFFFFFFFFFFFFFFFF AND PUSH1 0x2 PUSH1 0x0 DUP5 DUP2 MSTORE PUSH1 0x20 ADD SWAP1 DUP2 MSTORE PUSH1 0x20 ADD PUSH1 0x0 KECCAK256 PUSH1 0x0 SWAP1 SLOAD SWAP1 PUSH2 0x100 EXP SWAP1 DIV PUSH20 0xFFFFFFFFFFFFFFFFFFFFFFFFFFFFFFFFFFFFFFFF AND PUSH20 0xFFFFFFFFFFFFFFFFFFFFFFFFFFFFFFFFFFFFFFFF AND EQ ISZERO SWAP1 POP SWAP2 SWAP1 POP JUMP JUMPDEST PUSH1 0x0 DUP2 CALLDATALOAD SWAP1 POP PUSH2 0x6A8 DUP2 PUSH2 0xBB2 JUMP JUMPDEST SWAP3 SWAP2 POP POP JUMP JUMPDEST PUSH1 0x0 DUP2 CALLDATALOAD SWAP1 POP PUSH2 0x6BD DUP2 PUSH2 0xBC9 JUMP JUMPDEST SWAP3 SWAP2 POP POP JUMP JUMPDEST PUSH1 0x0 PUSH1 0x20 DUP3 DUP5 SUB SLT ISZERO PUSH2 0x6D5 JUMPI PUSH1 0x0 DUP1 REVERT JUMPDEST PUSH1 0x0 PUSH2 0x6E3 DUP5 DUP3 DUP6 ADD PUSH2 0x699 JUMP JUMPDEST SWAP2 POP POP SWAP3 SWAP2 POP POP JUMP JUMPDEST PUSH1 0x0 PUSH1 0x20 DUP3 DUP5 SUB SLT ISZERO PUSH2 0x6FE JUMPI PUSH1 0x0 DUP1 REVERT JUMPDEST PUSH1 0x0 PUSH2 0x70C DUP5 DUP3 DUP6 ADD PUSH2 0x6AE JUMP JUMPDEST SWAP2 POP POP SWAP3 SWAP2 POP POP JUMP JUMPDEST PUSH2 0x71E DUP2 PUSH2 0x981 JUMP JUMPDEST DUP3 MSTORE POP POP JUMP JUMPDEST PUSH1 0x0 PUSH2 0x72F DUP3 PUSH2 0x89F JUMP JUMPDEST PUSH2 0x739 DUP2 DUP6 PUSH2 0x8AA JUMP JUMPDEST SWAP4 POP PUSH2 0x749 DUP2 DUP6 PUSH1 0x20 DUP7 ADD PUSH2 0x9BD JUMP JUMPDEST PUSH2 0x752 DUP2 PUSH2 0xB29 JUMP JUMPDEST DUP5 ADD SWAP2 POP POP SWAP3 SWAP2 POP POP JUMP JUMPDEST PUSH1 0x0 PUSH2 0x768 DUP3 PUSH2 0x89F JUMP JUMPDEST PUSH2 0x772 DUP2 DUP6 PUSH2 0x8BB JUMP JUMPDEST SWAP4 POP PUSH2 0x782 DUP2 DUP6 PUSH1 0x20 DUP7 ADD PUSH2 0x9BD JUMP JUMPDEST DUP1 DUP5 ADD SWAP2 POP POP SWAP3 SWAP2 POP POP JUMP JUMPDEST PUSH1 0x0 PUSH2 0x79B PUSH1 0x29 DUP4 PUSH2 0x8AA JUMP JUMPDEST SWAP2 POP PUSH2 0x7A6 DUP3 PUSH2 0xB3A JUMP JUMPDEST PUSH1 0x40 DUP3 ADD SWAP1 POP SWAP2 SWAP1 POP JUMP JUMPDEST PUSH1 0x0 PUSH2 0x7BE PUSH1 0x18 DUP4 PUSH2 0x8AA JUMP JUMPDEST SWAP2 POP PUSH2 0x7C9 DUP3 PUSH2 0xB89 JUMP JUMPDEST PUSH1 0x20 DUP3 ADD SWAP1 POP SWAP2 SWAP1 POP JUMP JUMPDEST PUSH2 0x7DD DUP2 PUSH2 0x9B3 JUMP JUMPDEST DUP3 MSTORE POP POP JUMP JUMPDEST PUSH1 0x0 PUSH2 0x7EF DUP3 DUP6 PUSH2 0x75D JUMP JUMPDEST SWAP2 POP PUSH2 0x7FB DUP3 DUP5 PUSH2 0x75D JUMP JUMPDEST SWAP2 POP DUP2 SWAP1 POP SWAP4 SWAP3 POP POP POP JUMP JUMPDEST PUSH1 0x0 PUSH1 0x20 DUP3 ADD SWAP1 POP PUSH2 0x81C PUSH1 0x0 DUP4 ADD DUP5 PUSH2 0x715 JUMP JUMPDEST SWAP3 SWAP2 POP POP JUMP JUMPDEST PUSH1 0x0 PUSH1 0x20 DUP3 ADD SWAP1 POP DUP2 DUP2 SUB PUSH1 0x0 DUP4 ADD MSTORE PUSH2 0x83C DUP2 DUP5 PUSH2 0x724 JUMP JUMPDEST SWAP1 POP SWAP3 SWAP2 POP POP JUMP JUMPDEST PUSH1 0x0 PUSH1 0x20 DUP3 ADD SWAP1 POP DUP2 DUP2 SUB PUSH1 0x0 DUP4 ADD MSTORE PUSH2 0x85D DUP2 PUSH2 0x78E JUMP JUMPDEST SWAP1 POP SWAP2 SWAP1 POP JUMP JUMPDEST PUSH1 0x0 PUSH1 0x20 DUP3 ADD SWAP1 POP DUP2 DUP2 SUB PUSH1 0x0 DUP4 ADD MSTORE PUSH2 0x87D DUP2 PUSH2 0x7B1 JUMP JUMPDEST SWAP1 POP SWAP2 SWAP1 POP JUMP JUMPDEST PUSH1 0x0 PUSH1 0x20 DUP3 ADD SWAP1 POP PUSH2 0x899 PUSH1 0x0 DUP4 ADD DUP5 PUSH2 0x7D4 JUMP JUMPDEST SWAP3 SWAP2 POP POP JUMP JUMPDEST PUSH1 0x0 DUP2 MLOAD SWAP1 POP SWAP2 SWAP1 POP JUMP JUMPDEST PUSH1 0x0 DUP3 DUP3 MSTORE PUSH1 0x20 DUP3 ADD SWAP1 POP SWAP3 SWAP2 POP POP JUMP JUMPDEST PUSH1 0x0 DUP2 SWAP1 POP SWAP3 SWAP2 POP POP JUMP JUMPDEST PUSH1 0x0 PUSH2 0x8D1 DUP3 PUSH2 0x9B3 JUMP JUMPDEST SWAP2 POP PUSH2 0x8DC DUP4 PUSH2 0x9B3 JUMP JUMPDEST SWAP3 POP DUP3 PUSH32 0xFFFFFFFFFFFFFFFFFFFFFFFFFFFFFFFFFFFFFFFFFFFFFFFFFFFFFFFFFFFFFFFF SUB DUP3 GT ISZERO PUSH2 0x911 JUMPI PUSH2 0x910 PUSH2 0xA9C JUMP JUMPDEST JUMPDEST DUP3 DUP3 ADD SWAP1 POP SWAP3 SWAP2 POP POP JUMP JUMPDEST PUSH1 0x0 PUSH2 0x927 DUP3 PUSH2 0x9B3 JUMP JUMPDEST SWAP2 POP PUSH2 0x932 DUP4 PUSH2 0x9B3 JUMP JUMPDEST SWAP3 POP DUP3 PUSH2 0x942 JUMPI PUSH2 0x941 PUSH2 0xACB JUMP JUMPDEST JUMPDEST DUP3 DUP3 DIV SWAP1 POP SWAP3 SWAP2 POP POP JUMP JUMPDEST PUSH1 0x0 PUSH2 0x958 DUP3 PUSH2 0x9B3 JUMP JUMPDEST SWAP2 POP PUSH2 0x963 DUP4 PUSH2 0x9B3 JUMP JUMPDEST SWAP3 POP DUP3 DUP3 LT ISZERO PUSH2 0x976 JUMPI PUSH2 0x975 PUSH2 0xA9C JUMP JUMPDEST JUMPDEST DUP3 DUP3 SUB SWAP1 POP SWAP3 SWAP2 POP POP JUMP JUMPDEST PUSH1 0x0 PUSH2 0x98C DUP3 PUSH2 0x993 JUMP JUMPDEST SWAP1 POP SWAP2 SWAP1 POP JUMP JUMPDEST PUSH1 0x0 PUSH20 0xFFFFFFFFFFFFFFFFFFFFFFFFFFFFFFFFFFFFFFFF DUP3 AND SWAP1 POP SWAP2 SWAP1 POP JUMP JUMPDEST PUSH1 0x0 DUP2 SWAP1 POP SWAP2 SWAP1 POP JUMP JUMPDEST PUSH1 0x0 JUMPDEST DUP4 DUP2 LT ISZERO PUSH2 0x9DB JUMPI DUP1 DUP3 ADD MLOAD DUP2 DUP5 ADD MSTORE PUSH1 0x20 DUP2 ADD SWAP1 POP PUSH2 0x9C0 JUMP JUMPDEST DUP4 DUP2 GT ISZERO PUSH2 0x9EA JUMPI PUSH1 0x0 DUP5 DUP5 ADD MSTORE JUMPDEST POP POP POP POP JUMP JUMPDEST PUSH1 0x0 PUSH1 0x2 DUP3 DIV SWAP1 POP PUSH1 0x1 DUP3 AND DUP1 PUSH2 0xA08 JUMPI PUSH1 0x7F DUP3 AND SWAP2 POP JUMPDEST PUSH1 0x20 DUP3 LT DUP2 EQ ISZERO PUSH2 0xA1C JUMPI PUSH2 0xA1B PUSH2 0xAFA JUMP JUMPDEST JUMPDEST POP SWAP2 SWAP1 POP JUMP JUMPDEST PUSH1 0x0 PUSH2 0xA2D DUP3 PUSH2 0x9B3 JUMP JUMPDEST SWAP2 POP PUSH32 0xFFFFFFFFFFFFFFFFFFFFFFFFFFFFFFFFFFFFFFFFFFFFFFFFFFFFFFFFFFFFFFFF DUP3 EQ ISZERO PUSH2 0xA60 JUMPI PUSH2 0xA5F PUSH2 0xA9C JUMP JUMPDEST JUMPDEST PUSH1 0x1 DUP3 ADD SWAP1 POP SWAP2 SWAP1 POP JUMP JUMPDEST PUSH1 0x0 PUSH2 0xA76 DUP3 PUSH2 0x9B3 JUMP JUMPDEST SWAP2 POP PUSH2 0xA81 DUP4 PUSH2 0x9B3 JUMP JUMPDEST SWAP3 POP DUP3 PUSH2 0xA91 JUMPI PUSH2 0xA90 PUSH2 0xACB JUMP JUMPDEST JUMPDEST DUP3 DUP3 MOD SWAP1 POP SWAP3 SWAP2 POP POP JUMP JUMPDEST PUSH32 0x4E487B7100000000000000000000000000000000000000000000000000000000 PUSH1 0x0 MSTORE PUSH1 0x11 PUSH1 0x4 MSTORE PUSH1 0x24 PUSH1 0x0 REVERT JUMPDEST PUSH32 0x4E487B7100000000000000000000000000000000000000000000000000000000 PUSH1 0x0 MSTORE PUSH1 0x12 PUSH1 0x4 MSTORE PUSH1 0x24 PUSH1 0x0 REVERT JUMPDEST PUSH32 0x4E487B7100000000000000000000000000000000000000000000000000000000 PUSH1 0x0 MSTORE PUSH1 0x22 PUSH1 0x4 MSTORE PUSH1 0x24 PUSH1 0x0 REVERT JUMPDEST PUSH1 0x0 PUSH1 0x1F NOT PUSH1 0x1F DUP4 ADD AND SWAP1 POP SWAP2 SWAP1 POP JUMP JUMPDEST PUSH32 0x4552433732313A2061646472657373207A65726F206973206E6F742061207661 PUSH1 0x0 DUP3 ADD MSTORE PUSH32 0x6C6964206F776E65720000000000000000000000000000000000000000000000 PUSH1 0x20 DUP3 ADD MSTORE POP JUMP JUMPDEST PUSH32 0x4552433732313A20696E76616C696420746F6B656E2049440000000000000000 PUSH1 0x0 DUP3 ADD MSTORE POP JUMP JUMPDEST PUSH2 0xBBB DUP2 PUSH2 0x981 JUMP JUMPDEST DUP2 EQ PUSH2 0xBC6 JUMPI PUSH1 0x0 DUP1 REVERT JUMPDEST POP JUMP JUMPDEST PUSH2 0xBD2 DUP2 PUSH2 0x9B3 JUMP JUMPDEST DUP2 EQ PUSH2 0xBDD JUMPI PUSH1 0x0 DUP1 REVERT JUMPDEST POP JUMP INVALID LOG2 PUSH5 0x6970667358 0x22 SLT KECCAK256 0xF6 BALANCE 0xAC 0x24 RETURNDATASIZE ADDMOD PUSH13 0x5D6EBC2CAAE2018B5507AEEB33 0xC7 MULMOD 0xD4 0xD5 0xB2 PUSH22 0x2D20E1C2F5A364736F6C634300080400330000000000 "
				},
				"gasEstimates": {
					"creation": {
						"codeDepositCost": "618800",
						"executionCost": "infinite",
						"totalCost": "infinite"
					},
					"external": {
						"balanceOf(address)": "1601",
						"name()": "infinite",
						"ownerOf(uint256)": "1659",
						"symbol()": "infinite",
						"tokenURI(uint256)": "2124"
					},
					"internal": {
						"_afterTokenTransfer(address,address,uint256)": "infinite",
						"_baseURI()": "infinite",
						"_beforeTokenTransfer(address,address,uint256)": "infinite",
						"_checkOnERC721Received(address,address,uint256,bytes memory)": "infinite",
						"_exists(uint256)": "969",
						"_mint(address,uint256)": "infinite",
						"_requireMinted(uint256)": "infinite",
						"_safeMint(address,uint256)": "infinite",
						"_safeMint(address,uint256,bytes memory)": "infinite"
					}
				},
				"methodIdentifiers": {
					"balanceOf(address)": "70a08231",
					"name()": "06fdde03",
					"ownerOf(uint256)": "6352211e",
					"symbol()": "95d89b41",
					"tokenURI(uint256)": "c87b56dd"
				}
			},
			"storageLayout": {
				"storage": [
					{
						"astId": 22,
						"contract": "contracts/721/ERC721.sol:ERC721",
						"label": "_name",
						"offset": 0,
						"slot": "0",
						"type": "t_string_storage"
					},
					{
						"astId": 24,
						"contract": "contracts/721/ERC721.sol:ERC721",
						"label": "_symbol",
						"offset": 0,
						"slot": "1",
						"type": "t_string_storage"
					},
					{
						"astId": 28,
						"contract": "contracts/721/ERC721.sol:ERC721",
						"label": "_owners",
						"offset": 0,
						"slot": "2",
						"type": "t_mapping(t_uint256,t_address)"
					},
					{
						"astId": 32,
						"contract": "contracts/721/ERC721.sol:ERC721",
						"label": "_balances",
						"offset": 0,
						"slot": "3",
						"type": "t_mapping(t_address,t_uint256)"
					},
					{
						"astId": 36,
						"contract": "contracts/721/ERC721.sol:ERC721",
						"label": "_tokenApprovals",
						"offset": 0,
						"slot": "4",
						"type": "t_mapping(t_uint256,t_address)"
					},
					{
						"astId": 42,
						"contract": "contracts/721/ERC721.sol:ERC721",
						"label": "_operatorApprovals",
						"offset": 0,
						"slot": "5",
						"type": "t_mapping(t_address,t_mapping(t_address,t_bool))"
					}
				],
				"types": {
					"t_address": {
						"encoding": "inplace",
						"label": "address",
						"numberOfBytes": "20"
					},
					"t_bool": {
						"encoding": "inplace",
						"label": "bool",
						"numberOfBytes": "1"
					},
					"t_mapping(t_address,t_bool)": {
						"encoding": "mapping",
						"key": "t_address",
						"label": "mapping(address => bool)",
						"numberOfBytes": "32",
						"value": "t_bool"
					},
					"t_mapping(t_address,t_mapping(t_address,t_bool))": {
						"encoding": "mapping",
						"key": "t_address",
						"label": "mapping(address => mapping(address => bool))",
						"numberOfBytes": "32",
						"value": "t_mapping(t_address,t_bool)"
					},
					"t_mapping(t_address,t_uint256)": {
						"encoding": "mapping",
						"key": "t_address",
						"label": "mapping(address => uint256)",
						"numberOfBytes": "32",
						"value": "t_uint256"
					},
					"t_mapping(t_uint256,t_address)": {
						"encoding": "mapping",
						"key": "t_uint256",
						"label": "mapping(uint256 => address)",
						"numberOfBytes": "32",
						"value": "t_address"
					},
					"t_string_storage": {
						"encoding": "bytes",
						"label": "string",
						"numberOfBytes": "32"
					},
					"t_uint256": {
						"encoding": "inplace",
						"label": "uint256",
						"numberOfBytes": "32"
					}
				}
			},
			"userdoc": {
				"kind": "user",
				"methods": {},
				"version": 1
			}
		}
	}
}